:10000000F01F0000150000100000000000000000BC
:1000100000207047F8B518482921490608620120D8
:10002000086000204861012088600F2008610020DE
:1000300008613F20C861FE20C8600420486000BFFE
:1000400000BF00BF00BFFFF7E3FF00900B4845680B
:1000500000260746002404E0A0003858A100705094
:10006000641C202CF8D300204560A84700BF00BFC7
:1000700000BF00BFF8BD0000A07F0000000400101A
:100080000000000000000000000000000000000070
:100090000000000000000000000000000000000060
:1000A0000000000000000000000000000000000050
:1000B0000000000000000000000000000000000040
:1002C000000300000000000000000000000000002B
:1002D0000003000000B900000003000000B90000A6
:1002E00000C00000000400000100010001004800FF
:1002F000190F4341525245524200000001000000D4
:1003000000000000000000000000000000000000ED
:1003100000000000000000000000000000000000DD
:1003200000000000000000000000000000000000CD
:1003300000000000000000000000000000000000BD
:1003400000000000000000000000000000000000AD
:10035000000000000000000000000000000000009D
:10036000000000000000000000000000000000008D
:10037000000000000000000000000000000000007D
:10038000000000000000000000000000000000006D
:10039000000000000000000000000000000000005D
:1003A000000000000000000000000000000000004D
:1003B000000000000000000000000000000000003D
:1003C000000000000000000000000000000000002D
:1003D000000000000000000000000000000000001D
:1003E000000000000000000000000000000000000D
:1003F00000000000000000000000000000000000FD
:10040000F01F00007F060010000000000000000048
:1004100000000000000000000000000000000000DC
:1004200000000000000000000000000000000000CC
:100430000000000000000000F1050010B38E001065
:10044000551200107D0600107D0600107D0600107C
:100450007D0600106D070010952100105518001042
:100460007D0600107D0600107D0600107D06001040
:100470007D060010E50600107D0600107D060010C8
:100480007D0600107D0600107D0600107D06001020
:100490007D0600107D0600107D0600107D06001010
:1004A0007D0600107D0600107D0600107D06001000
:1004B0007D0600107D0600107D0600107D060010F0
:1004C00003B40148019001BDE11F000003B40148DD
:1004D000019001BDC100000000F002F800F040F8FA
:1004E0000CA030C8083824182D18A246671EAB4649
:1004F00054465D46AC4201D100F032F87E460F3ED4
:100500000FCCB6460126334200D0FB1AA246AB46BA
:100510003343184760B40000D0B40000103A02D34F
:1005200078C878C1FAD8520701D330C830C101D594
:1005300004680C607047000000230024002500269A
:10054000103A01D378C1FBD8520700D330C100D58F
:100550000B6070471FB5C046C0461FBD10B510BD2B
:1005600009F012FE1146FFF7F5FF00F09EF809F0C2
:100570002AFE03B4FFF7F2FF03BC01F00AFE0000FD
:10058000FCB40022002300240025002600270629B1
:1005900002D4FCC00639FAE7002902D004C00139B0
:1005A000FAE7FCBC7047000002B472B60178013172
:1005B000017062B60139080002BC704702B472B61D
:1005C00001780139017062B6080002BC7047000072
:1005D00062B6704772B670471C3880F3098870475E
:1005E000014802490160704704ED00E0000000107E
:1005F000114B1968114A1268914216D0EFF3098025
:1006000020380860F0C044464D4656465F46F0C06C
:100610001A6010681030F0C8A046A946B246BB4622
:100620002038F0C8103080F30988054B002018707E
:100630000420404200470000C4050000C00500003F
:10064000A505000070B505460C46164602E00FCC25
:100650000FC5103E102EFAD2082E02D303CC03C5CC
:10066000083E042E07D301CC01C5361F03E02178D4
:100670002970641C6D1C761EF9D270BDFEE710B5A2
:10068000FFF72AFF10BD10B508F067F90F4B104AAD
:100690000021104808F0C3FC0F4B104A00211048FD
:1006A00008F0BDFC08F07CF910BD10B500F0BAF9F7
:1006B000FFF706FF01F0CEF900F054FC00F0F7FD63
:1006C00000F056FCFFF7DFFF012010BD60070000BF
:1006D000096400009F660010100C00000A2C010045
:1006E0000D1C001010B508F003F9F948407808F027
:1006F0004EFBF8490F20C86208F0FFF810BDF8B5AE
:100700000246A032937DF44C5D009E005C23009570
:100710005F5C3B0009F0BAFD08070A050A07050AF5
:10072000070A0C6B05E0D27A022A15D0002001F0EE
:1007300063F8EA498020C8623004E94A801C5061AD
:100740002804801C55210906486120042043886143
:10075000906101200860F8BD4C6A9021415E481C00
:10076000E7D035460029E4D1009DE2E770B5DD4CC5
:10077000C820055908F0BCF80120552109068862F7
:100780002046A0300188891E0B0009F07FFD070577
:1007900005232305050523002146803110228A5EAA
:1007A000002A10DD521E0A820088062803D100218B
:1007B000022000F014FA204601F0C6FB294620462C
:1007C000FFF79DFF09E00321C172C148007808F0DE
:1007D000DEFA02E0002001F00FF808F08EF870BD9C
:1007E00070B505460446203501F04FFCC0346079F1
:1007F000A881012070BDF8B506460F460125344694
:10080000284600227F21A0343B0009F03FFD070568
:10081000090D110B13111500E2742175A0740EE07F
:100820002022F9E74022F7E74D20E074A27406E0A9
:100830004422F1E70225EFE7002000F0DDFF294622
:10084000304600F0ADFFF8BDF8B507460020085E61
:100850000C46C00F00F0D0FF20883D464042E080AB
:10086000A07AA03528803E46608880363082E088B5
:1008700078642089F083E07A2872207BA872202097
:10088000005D2873207D6873607D2877A17DC52079
:10089000C1552079B074E07EE873207EB08300F00B
:1008A000FBFD407E687200F0F7FDC07D30760121CF
:1008B0004020C153A07EFE21401C0840A875607EE8
:1008C00068752069B06300206877864800F05AF99F
:1008D0002888801E030009F0D9FC07270534340559
:1008E0002205340000F0D8FD2030807900280BD09C
:1008F0002888082808D0768B607E31468019401EF3
:1009000008F0CEFE70436875E17D7648FFF773FF0F
:10091000744801F065FA384601F0B7FB14E0002195
:100920007048FFF768FF08E002216E48FFF763FF99
:10093000E08880086877002030763846FFF750FF5F
:1009400002E0002000F058FF0120F8BD10B501467C
:10095000654808F09BFE410A5E4A0120403A50601B
:100960005C48002303620F23C3620161FF214161E0
:100970008161032151600421016210BD70B50246FE
:10098000584C0846A034130009F080FC0C47332271
:1009900047474143074747130B47524800F0AAF81F
:1009A0003EE00D46A17FA9423AD0FFF7CFFFA577E1
:1009B00036E0CAB229214906486BFF231B021840C2
:1009C0004A4B00241C5F002C00DA1043486327E0E8
:1009D0004448FFF739FF00F05FFD414B40300021F4
:1009E000803B8A008458D2181462491C0829F8D325
:1009F00016E03C4EC82081510220E0720D46304680
:100A000001F0A2FA29463046FFF779FE08E00120FE
:100A100000E0002000F04AF802E0002000F0ECFEC8
:100A2000012070BDF8B50021084607F0DDFF284C15
:100A300000212070084607F0D7FF6070294C01257F
:100A40004020055320460421803081832146022224
:100A5000A0314A808A8040390D8205800F268E831E
:100A600086812746204601F0A8FC204600F08AF83F
:100A700001F0E1FC01F060FA0121204600F090FE57
:100A8000CC2221463846FFF7DDFDA91E5520000681
:100A900081621049CE62114A1549403A11620F49EC
:100AA0008022CA6200220A630562F8BD10B50C46B6
:100AB000002803D0084601F0D2FB10BD00F0ECFC8A
:100AC0002030407A0028F8D0204601F0AEFB10BD5F
:100AD000A004000080000052CDCDCDCDC003005554
:100AE00000010055140C0000005A62027805000055
:100AF0003343000070B5054600F0CEFC807F01F066
:100B0000D7FB00F0C9FC2030C079294601F03BFC3E
:100B100000F0C2FC808CFFF719FF284600F032F885
:100B2000002400F0B9FC2030007A002806D0102400
:100B300000F0B2FC2030007A01F058FB0848102188
:100B400081630463074A1278002A01D0016300E040
:100B5000046300F0A1FC808CA035A87770BD000074
:100B6000C00300557505000010B5012806D04E4998
:100B70000846143001F044FB012010BD002000F0B5
:100B80003BFEF9E710B5FF215322120604465160DF
:100B900004201062516200239362D3621163434ABE
:100BA00051604348106253629162404A4032516042
:100BB0001062536291623D4A80325160106253620A
:100BC00091623A4AC03251601062536291620020D1
:100BD000FFF7CAFF0620A034A071E07110BDF8B580
:100BE00004460D46009100F057FC3248EE000778AD
:100BF0007000761C7100761C7200761C73009C4697
:100C0000761C73009E46761C7300761C7500761C5D
:100C10007600002F2BD0032C01D0022C26D1552496
:100C2000009F2406002F37D0234F2763234F67638D
:100C3000214F4037A7631C4C3434275A1B48476068
:100C4000615A01621948A15A403041606146615AB7
:100C500001627046215A154880304160E15A0162B4
:100C60001248615BC0304160A15B0162F8BD032C9A
:100C7000FCD1144F124C3C613C620B4C3434275A6B
:100C80000A484760615A01620849A05A40314860E9
:100C90006046205A0862DCE70B4F27630B4F6763FF
:100CA000094F3037C6E7000010A60010000040537F
:100CB00055550000750500008CCCCCCCCCCC8CCC30
:100CC0000000F0FF4000005269999999999969993B
:100CD00010B52421663008F0D5FC012010BDF8B510
:100CE0000446074605462037A034787F6076387F73
:100CF000A076012020730020206128682080686D84
:100D0000E07600F0C9FB407D207500F0C5FB408A0D
:100D1000208100F0C1FB007D607500F0BDFBC07F4D
:100D2000207100F0B9FB20308079E07500F0B4FB51
:100D3000807D2946207640312E46087F0022D2430E
:100D4000C0366035022824D0042839D0052820D0A8
:100D5000072835D000F0A0FB007E4042608000F004
:100D60009BFB4078A07200F097FB807E20730620EA
:100D7000E07200203070E0612879002806D0012858
:100D800004D0022802D0002000F036FD0120E072DD
:100D9000F8BD0220A07262802878A0756878208152
:100DA000A8786075002020750622E27230702061FC
:100DB0000120E061087F0528E8D10720A072E5E75F
:100DC00009206076387FA076012020766280082195
:100DD000A17220730620E072002030700321E061D0
:100DE000E1750A22228161752075CFE701207047E5
:100DF00070B5054604466030017042708370FF2074
:100E000001217D30015502215C200155A03520468D
:100E1000FFF765FF29460220FFF7B0FD21460120BC
:100E2000FFF7ACFD70BD70B505460446603001703B
:100E300042708370FF2001217D30015505215C2027
:100E40000155A0352046FFF74AFF29460220FFF74B
:100E500095FD21460120FFF791FD70BD70B5044658
:100E60000546FF300022613002775C200155206C7E
:100E7000A0351E46002806D12046FFF730FF294640
:100E80000220FFF77BFD21460120FFF777FD044696
:100E9000002E02D0002000F0AFFC204670BDF8B557
:100EA0000546A03504460E461746002B0BD00621FA
:100EB000104607F081FE002802D0002000F09CFCC4
:100EC000384607F035FFFF2000217D3001555C20BA
:100ED00006552046FFF703FF29460220FFF74EFD87
:100EE00021460120FFF74AFDF8BD70B55C1C65087E
:100EF0006D001524A406049EA161E0610120A0609C
:100F0000521E11045A1E1143E1606904891C2161BB
:100F10005904891C6161A0622060002E02D06068C3
:100F20000028FCDB70BDF0B5059D069F6C1C6608B3
:100F300076001524A406A161E0610120A060521E84
:100F400011046D1E2943E1607104891C216159045B
:100F5000891C6161A0622060002F02D060680028B7
:100F6000FCDBF0BD01211520800681620162704723
:100F70000849074808620948074901600849416073
:100F800008494017086007490748803908607047DA
:100F90000000C04000ED00E00140404000E400E0FF
:100FA0004040004080E100E0E1200000F8B54178D9
:100FB000027809021143FE4A84785268FD4B944638
:100FC000803211825482CA1A0026FB4F01259942B1
:100FD00074D009DCF94A891A0DD0102910D01229D1
:100FE00045D013290BD19EE0012A68D0042A67D08E
:100FF000052AF7D1E0E0604640308577C577DDE02F
:101000001021EF4E042C317006D0032C0ED0022C90
:1010100016D0012C1ED0D1E00279C17812028918B5
:101020008AB2411D104606F031F81CE00279C17801
:10103000120289188AB2411D104606F0AFF812E07C
:101040000279C178120289188AB2411D104606F051
:1010500070F808E00279C178120289188AB2411D3D
:10106000104606F031F8002800DB3573A6E0D54ABB
:10107000D549002C08D0102C19D0D44A401C112C72
:1010800039D0122C43D099E00E70167000F004FA9B
:101090004021418200F000FA04210175C820B88087
:1010A000F880502038819620788178201EE00D70DD
:1010B000C078002805D0012806D07FE03DE042E05E
:1010C0005EE016700E7079E0157000F0E5F9802191
:1010D000418200F0E1F9052101756420B880F880B3
:1010E0002820388150207881FF202D307883FF2000
:1010F000C330B88362E00D70C17883780902194368
:1011000051804179037908021843108056E00D7030
:10111000C178837809021943D180417903790802A3
:10112000184390804AE0AA48012C04D0067300209E
:1011300005F0A1F842E0057340E03121A54808F030
:10114000A1FAA54839E0A54F012C01D03E7035E049
:1011500000F0A6F90446FF303D706421133008F01A
:1011600091FA2046FF300C21773008F08BFAE01D11
:10117000F930067446741A21823008F083FA1DE0B3
:101180009748002C02D0012C0BD017E00670962057
:10119000B880C821F9805021398178813D767D76EB
:1011A0000CE005706E20B880F8803220388178819C
:1011B00019203876787601E08A4804700120F8BD5D
:1011C0000121C903411A8903090E8B008649820552
:1011D000C958920D002907D081231B02C01A32285A
:1011E00004D87C4908187047002070478818704759
:1011F00010B5C2B27C4B000A4400203B1B5B9342FB
:1012000002D80020088010BD774C8000603C205838
:1012100080189A1A0A8010BDF0B505220124042511
:1012200012078426714B012807D00027022808D016
:10123000042808D0082808D109E05D4841601560FD
:1012400001E0002903D016601C700120F0BD15607C
:101250001F70FAE7F8B5664E746AF462E00501D5CE
:10126000302022E0A006800F20D0614D403D68680C
:10127000C007FCD052480078122803D10021022078
:10128000FFF7CAFF4A4F2046397800F019F80220CC
:101290002860012028600C2028625648A862564821
:1012A000286200203870FF2001303062F8BD70B530
:1012B0003F4C00256C20656000F045F8257070BD3E
:1012C000F8B54C4E70783178050249480D434038E6
:1012D000406A82218000800C0C1A022C0CD030DD78
:1012E0003648281A202816D200F029FA3046FFF78F
:1012F0005DFEFFF7F7F924E031480078122808D0A6
:1013000001210220FFF788FF2146284600F03CF823
:1013100017E00021F5E701200003854211D2A8B2B1
:101320006946FFF765FF00280BD069460988A41EAF
:10133000A14201DD69460C8069460A88B11C08F0AB
:1013400044F90120F8BD30B584210522120711604F
:1013500001231361002515622549022440390C60E0
:101360000B600C610B617F231B021843D0610C20C2
:10137000086220488862204808621D48E11EC16258
:10138000C562E101016230BDF8B5044609200025BF
:101390008001201A2B468C2834D21848844201D16F
:1013A0001748037000F07CF80019FF38313856E018
:1013B000A404000014080000380300000008000026
:1013C000FC020000600500005F05000064050000ED
:1013D0007C030000620D00005E0500006105000056
:1013E000290500002A050000A4A800101805000027
:1013F000C0000050E00C000009008200B2020000B2
:101400006305000001263603B44204D2A0B2694647
:10141000FFF7EEFE23E0A120A11BC000814216D2FF
:101420001948B4424268506B01D00D4617E0002ABB
:1014300029D016490978102911D000290FD024226B
:1014400042804722436002700822427007E0012078
:10145000C003201AB04216D2A0B2FFF7B1FE002896
:1014600011D041190A4804220260094B0222403B74
:101470001A6101221A6105231B079A6081600549E0
:101480000160491E0160F8BDA4040000FC020000D8
:10149000C00000500900FFFFAE487047AE487047DB
:1014A000AC487047AD49002008607047F8B5A948BE
:1014B000A84A6030917803460025403B55297DD0ED
:1014C000A74903260D70552191705670FF211573A1
:1014D000D5311182402151820424147555750221A1
:1014E0009175D5750121117655769176D1762321A6
:1014F00011775177014640310C7060245484782470
:101500009484044680343227E77501279F71DE7189
:101510005D7297771D72403215705570914A026066
:101520004260C5600561904A456182608F4A826170
:101530008F4AC2618F4A026288308F4A02608F4AA6
:10154000426002204870642088700A23CB703C20DF
:10155000142708710720087408462030EA1E02701C
:101560004D71642088711E20C8717820608002202F
:10157000207620703220607002202071102060716F
:101580000220A071E671278223750520A074C01F78
:10159000A0754010607572481121008908F076F836
:1015A000E074322060760520A0762820E076267749
:1015B00065770120A077E577204600E016E020302F
:1015C000C82101704570082181700E21C1703C2135
:1015D00001714771877164210181F0214181E1210D
:1015E0008900818120218173C77303E0907F0428E3
:1015F00000D11D72624A1F20107012206149507084
:10160000088D9082488DD082888D10835E48007846
:10161000012816D0C88D50835A48594B2030047C7D
:1016200020339C70407CD870088F908400200B1869
:10163000203314189B7C401C23770628F7D3002006
:1016400006E0AA20E7E7410089180D714D71401CA2
:1016500091788142F7D8F8BD704770473D48002126
:10166000016641660921090381664049816747484F
:10167000142101804180FA228280FF221932C28027
:1016800096220281428164238381C28105220275F0
:1016900042753F4A04239180494251803D49782256
:1016A0008A808B714283FF22C332828355208882D5
:1016B000FF21394891310180418038481E21C18085
:1016C00028210181704710B5254A0A2191702148CF
:1016D00024490166416624498166244981672B4873
:1016E000192101804180FF212D318180FA21C180A3
:1016F00096220281C821418150238381C281042224
:101700000275234B42750F249C8064425C80214B00
:1017100064249C809A7137229A821F4A11805180DA
:101720001E490E22CA801E220A8178214183FF2190
:10173000C3318183084872380221417010BD0020F6
:10174000074A01461318401CC0B219730C28F9D37C
:101750007047000040010000520200001803000022
:10176000FC020000444444444494444422F30000F6
:1017700072011000CDCDCDCD05070A1425426B9620
:1017800074040000C00200102005000038030000AF
:10179000F00200008C030000200400001C03000085
:1017A000FEB5044601291BD0002000F025F825468F
:1017B000A0356946687C0F7A009AB8420ED00C4E6C
:1017C0000021C80013583360801840687060491CBD
:1017D0008029F6D38034019860836F740720FEBDA2
:1017E0000121684601720349072000910190DEE75C
:1017F00000020055B4A80010F8B50025002820D13B
:10180000104E00273078104C012810D0FFF75BFFF6
:1018100001252771FFF740FE222181700A482946E1
:10182000603804F0C9FE3078012803D007E0FFF7E4
:1018300015FFF3E705490120087305480770852067
:10184000E070F8BD27050000DC1B00007C030000F1
:101850002605000070B55720000644690021C943E1
:101860008161A1070FD407F043F8A84DE00702D02B
:10187000287807F08CFA200702D5687807F087FAF5
:1018800007F03BF870BDFF210231016070BDF8B573
:101890009F4C012810D002280ED00D462035032879
:1018A00016D0052807D1A0690C216956000C000448
:1018B00089B20843A061F8BDFFF7EEFD20308079C2
:1018C0000028F8D1E068000C00044F30E060F8BD5B
:1018D000FFF7E2FD20308079002804D1A06D000CD4
:1018E00000044F30A065FFF7D7FDA03040790028F5
:1018F00005D188488169090C09042B318161687A16
:10190000012805D18348C0300169090C090401612F
:1019100020680C216956000C000489B2084320603D
:1019200060690D216956000C000489B208436061AA
:10193000784CC03C61680A20774E2856370C020666
:10194000120D3140384011430002014361602168AB
:101950000B20285631400206120D38401143000278
:1019600001432160FFF798FDFFF796FDE030007D11
:10197000A16B000131400843A063FFF78DFDE0300B
:10198000007D644D40420006040D803DA869304052
:101990000443FFF781FDE030007D40423840000203
:1019A0000443AC61FFF778FDFFF776FDA0305B4C98
:1019B0008079E168000131400843E060FFF76CFD89
:1019C000FFF76AFDA030C079216B00013140084368
:1019D0002063FFF761FDE030017D50484038C16170
:1019E000F8BD70B54E4D0C4601280AD002281CD017
:1019F000032804D0042810D00020FFF7FDFE0120AA
:101A000070BDFFF749FDE8300168A9604068E860F3
:101A10002078214600F02EF8F1E74048403801696F
:101A2000090C0904491C0161E9E757213D480906F1
:101A300008600020420051190B691219538009698E
:101A4000801C090C91800A28F4D335488038C0687E
:101A5000E082D4E710B50021084606F0C5FF2B4907
:101A60000870572030490006C1600B2101612F49E1
:101A7000816110BDF3B5044687002D480F26B602DC
:101A8000C55981B0072C01D2012000E00020FFF7EA
:101A9000B3FE01208002854201D8012000E0002031
:101AA000FFF7AAFE029820308646007AA0421AD09C
:101AB00016480021001DC759AA081548944604E09D
:101AC0008A00BB5812181360491C8C45F8D20022BA
:101AD000FF270137B94204D88B001B181A60491C34
:101AE000F8E770460472029802990078FFF7CFFE7B
:101AF0000120C0073146014357200006816071195B
:101B00004160FF2102310160FEBD0000AC04000015
:101B1000003C0040803E00400FF000FF803F00404E
:101B2000C00000570001010030000080FFFF0000EE
:101B30007CB2001070B5044605460E46C43401213F
:101B40000320FFF74EFF28462030017F491E2176F3
:101B5000407F60762A48E0612A4820622A48606215
:101B60002146284600F01DF832460121204600F0AB
:101B700010F800214035A97770BD10B5C43003229C
:101B8000022100F006F8040001D1FFF735FE2046DF
:101B900010BD10B50B46027001461846FFF721FF35
:101BA00010BD10B50C46036C01222034022B01D36A
:101BB000627201E0002161720521217302216173CB
:101BC0004030807F012802D0022803D101E0227337
:101BD00000E06273FFF760FCA03040781E2801D956
:101BE0001E2003E0FFF758FCA0304078202140B2CF
:101BF000E072081A022800DA0220A07210BD00006C
:101C0000802F00407C2900400C1800401B49012017
:101C1000FFF702FB02F0BEFD03F02CFC02F0F6FD24
:101C2000FFF740FC164803F076FE01F044FD05F096
:101C300011FC144806F04FFA134E144C144D314663
:101C4000207806F0B9FF002802D00020FFF7D4FD6D
:101C5000207807F06DF8094800F00AFF0746FFF703
:101C60001BFC007B0028EAD128780028E7D1002F50
:101C7000E5D000210220FFF7CFFAE0E77C1B00004F
:101C80003803000000BF0010809698007205000025
:101C9000FC02000010B50446090260344D4B1143AC
:101CA000E270CA1A994215D008DC4B4A891813D041
:101CB000502914D0494A891809D110E0FF3AFF3A57
:101CC000033A11D0FF2A05D0FF3AFD3A07D0002091
:101CD000FFF792FD012010BD01F040FBFAE701F093
:101CE000EFF88120E070F5E7FFF7D6FB818C0B2041
:101CF000FEF744FEEEE7F8B5064604466030FF36D0
:101D0000C07800251536302804D00020FFF774FD78
:101D10002846F8BD002740362764204601F057FBCF
:101D20000546012808D00420305E001D01F03CFA71
:101D3000206C401C2064F0E72764FFF7ADFBFF3008
:101D400001304770E4E770B5054604466035E87831
:101D500081280AD083280ED084282FD0852807D048
:101D60000020FFF749FD012070BD832281212DE075
:101D7000802285212AE0204601F04AF9FFF78CFBFA
:101D8000E0300178A06C814202D2842283211DE0E0
:101D900000280FD0FFF780FB848C2879002804D11D
:101DA000FFF77AFBF72141560C1921460B20FEF76D
:101DB000E5FDD8E7FFF770FB818CF7E7204601F0DF
:101DC00027F9A06C0028CED1832284212046FFF77A
:101DD00061FFC8E783810000D0EFFFFFB0DFFFFFA6
:101DE00010B50246A032517B102911D006DC002923
:101DF00003D0012901D0032906D110BD112907D034
:101E0000122905D0132903D00020FFF7F5FC10BDDF
:101E10004900454B20395B5A1377434A921E515A69
:101E20008030C18310BDF3B5044605468034A0352B
:101E3000E18BAA7A81B051434E00A76B00F016F8EF
:101E40003A480761A17CAA7AC901521E1143416137
:101E500061691022D1418161287F761E31040843D7
:101E600002990902084332494863FEBD70B506462F
:101E7000A0360024707B254610281ED006DC0028E2
:101E80000DD001280BD0032806D108E0112814D06A
:101E9000122812D0132810D00020FFF7ADFC707B61
:101EA00001218A1E224E002811D0012815D00328B6
:101EB0001AD0002C21D0012020E041001A4A2039FC
:101EC000921E555E80001B4940380C58E7E7B1630D
:101ED000B263801CFF28FAD970BD0020B163B163E2
:101EE000801CFF28FAD970BD0020B163B163B263D2
:101EF000B263001DFF28F8D970BD0020FFF77CFCFD
:101F000000206A0007E04100635EB3630B19022101
:101F1000595EB163801C8242F5D80021FF28EBD8BE
:101F2000B163B163801CF9E7D8B20010000200551C
:101F300040000055C80400003D2002490004086329
:101F40007047000040020055F8B5054640350021B5
:101F50000246034604462E88703250332034864FA2
:101F6000761E8E468C463E60AE89761E7E60866CFE
:101F7000761EBE60466C856C751B6D1EFD60A68965
:101F80007D4D761E40356E61A668761EAE61A768EF
:101F90006668F61B761EEE610788774E7F1EC03698
:101FA000376387897F1E776387687F1EB7634768BB
:101FB0008668BF1B704E7F1EC036F7631E88761E74
:101FC0002E629E89761E6E629E68761EAE625E6886
:101FD0009B68F31A5B1EEB6213885B1E2B6393896D
:101FE0005B1E6B6393685B1EAB63536892689A1ABF
:101FF000521EEA63A48902462504A032D37C01263E
:1020000036041B06AD1B24022B43FF3C013C23433B
:10201000113355252D06AB60574B147D1C61574B72
:10202000EB6004468034544B267EC03B002E01D02A
:10203000534E01E0524E803E1E63137A012B01D9AC
:1020400001239E461023E35E002B01DD072106E0FD
:10205000002B13D05E1C15D00121DB432382927C20
:10206000090512060A43714609040A4345490A4311
:102070002A616146FFF7D7FE0120F8BD01218C4699
:102080000621ECE701239C46E9E7FEB50146203135
:1020900006460091A036B27A0192426C054652087B
:1020A0008264024680320746044601460292D08B83
:1020B000928B40348018A081F079B2797035821803
:1020C0008A60A089503742008A81606843084B606B
:1020D0002088F279C018821A0A802988A068401ADC
:1020E000A989401E491C07F0D1FA019907F0CEFAE0
:1020F00068604008A860A068019907F0C7FA029AD2
:102100006168928B51432288891840180922B2567F
:10211000696851432A888918401A401E3880A0688F
:10212000019907F0B3FA78602888A9684018B86068
:10213000029AD08B019A50434000B88100996068A0
:102140008860218860684218A189491C484324306E
:1021500000991018486064680019401E214607F075
:1021600095FA717F60434018009948600099707D2E
:1021700088810120FEBD000000010055430300607E
:10218000F1430001C0030030012070470A460346B6
:102190007047FEE7F8B5FFF77FF905464035552053
:1021A00000064068A54EC002A54FC40E01D1306B99
:1021B0003870A4480078012803D121460520FEF795
:1021C0000EFD285D3978401830639F4910208863E0
:1021D000F8BD10B5552000064068C002C10E0320AE
:1021E000FEF7FDFC98491020886310BD022805D039
:1021F000032803D095480021886570479448FAE782
:1022000030B5944C00229300CD581B191D60521C10
:10221000052AF8D38F4B0021403B8A008458D218FE
:102220001460491C0829F8D330BD10B5292149068E
:10223000CA680C239A43CA600222874B012807D040
:10224000022805D0032806D00020FFF7D5FA10BDDC
:102250005A60824801E05A608148086210BD70B53A
:1022600029214906CA680C231A43CA6003247A4A02
:102270004123002808D0032803D00020FFF7BCFA30
:1022800070BD54600B6270BD7648086272480025CC
:1022900040300560132545608560546072480862CF
:1022A0006F487B3008620B6270481061106270BD2D
:1022B000F1B5002082B06D4F019005460646FF4300
:1022C0000090FFF7E9F80446029800216034C94302
:1022D000030007F0DBFF050407090F070C000D469C
:1022E000019707E00D4600E00197009702E000200B
:1022F000FFF782FA5E48007801280AD0514800783A
:10230000012809D05B48007800280ED05A4D5B4E5A
:102310000CE00B26360309E059480078012801D06B
:10232000002503E0574D584E00E0584E46480199AD
:102330008038016000990161464880380561456137
:102340008661552212062168116361685163A16894
:1023500091633D49E36840390B6023694B606369D1
:102360008B60029B042B07D1494B0361436183615E
:10237000D843106350639063A0690861E069086204
:10238000206A4862FEBD70B504460D46062801D29B
:10239000012000E00020FFF72FFAC0353D492B68EF
:1023A000E0000A581B021B0A1A4329235B069A63A2
:1023B000401829494068086070BDF0B5364EB36BCF
:1023C00000218A0092191268491C9B1A0E29F8D321
:1023D00035680246314F2921314C4906A032C030C0
:1023E000BD4205D1F56B2F4FBD4201D1002B0BD063
:1023F000012323705C230B6305231B034B632A49D2
:1024000001600720D077F0BD002323707368D37775
:10241000B368F4681B042402234334692343036034
:102420007369DBB20371B069D0730B63D07B0002B8
:1024300008304863F0BD002011E70000C0010055DE
:10244000CC04000074050000C00300559521001065
:10245000D3210010C000005540000052E57F00006D
:1024600045780000C07B0000C07A00000000F0FF4B
:102470007605000027050000AAAAAAAAAA0AAAAA05
:10248000750500007777777777077777FF0FFFFF7E
:1024900044444444DCB2001080C3002010041020E7
:1024A000200500001306741920202000F8B5F84C10
:1024B00006460F46207806F03BFCF64D287806F0DD
:1024C00037FC4E20805D002811D003230822022112
:1024D0003046FEF78DFC0321207806F06DFB0028C6
:1024E00002D00020FFF788F9207806F021FCEA48A6
:1024F0001821437802783046FEF77AFC6421207870
:1025000006F05AFB002802D00020FFF775F920786A
:1025100006F00EFC04213046FFF70CFB64212878FE
:1025200006F04AFB002802D00020FFF765F9287862
:1025300006F0FEFB2422D949384607F046F8012070
:10254000F8BDFFB5002683B00F463546344618E087
:1025500060000290385A07F04FFB07F0A5FE00908C
:102560000191304607F04CFB019B009A07F0F0FA0E
:1025700007F03AF906460298385AA84200DD0546A7
:10258000641C05988442E3D3284607F073FC07F0E7
:1025900037FB07F089FE07F027F904462421384667
:1025A00007F070F83046069907F03AFF0399086083
:1025B0002046069907F034FF03998860059807F0D4
:1025C00061FC0146304607F043FB069907F028FFFF
:1025D0000399486007B0F0BDFFB585B000200290B8
:1025E000AF4800901446012748000E46A04201DA89
:1025F000012000E00020FFF7FFF8751CA01BC01BA6
:1026000004903EE000200746744201901BE0301920
:1026100081000898405803902819182148430599CB
:102620000858039907F0FCFE0146019807F05EFE8A
:102630000190384607F01EFC039907F057FE07F09B
:10264000B7FB0746641CB442E1DD384607F012FCD4
:102650000146019807F0FCFA1821059A69438C1885
:102660000146E060009807F0B1FE01D2009800E05A
:10267000E0680090E16807F07FFE00D102950498C1
:102680006D1CA842BED8029809B0F0BDF3B583B066
:1026900000207D2500900826ED008248049906F070
:1026A000F5FF47087F0074423846294648430190A9
:1026B0007D487E4960434018019906F0F1FF049976
:1026C000091A00D54942A94203DA26460D460836C2
:1026D0000090641C082CEBDB039879424665039854
:1026E000016003990098C8603802039930438865F7
:1026F00031460A20FEF742F9012005B0F0BDF0B5E1
:102700000446C068616887B0451AA1680022401875
:102710007D21C900029166490978039165490191BB
:102720000321009164498A5E002A0BDB012003909B
:10273000FEF7B2FE018A60680D1AFEF7ADFE008A50
:10274000A1684018642D00D26425FF21F53188422C
:1027500000D908464F4E0590307806F0E9FA00217E
:102760002046FFF7E7F96421307806F025FA0028C3
:1027700002D00020FFF740F8307806F0D9FA0026A2
:1027800020466630049021E01820019970434718D4
:102790007F20C005069029462046FFF777FFE168B5
:1027A0000298814210D020460499FFF77FFE112243
:1027B0003846069B0499FFF7C4FEA06D7861E06877
:1027C0003861E068761C029003982D1805988542C0
:1027D000DAD33A4B324600990198FFF7FDFE1821F3
:1027E000484301994018056980683549884204DDED
:1027F0003449012008706421085529462046FFF716
:1028000045FF3149019806F03FFFFEF745FE45843C
:102810002068DFE6F0B505462C480027007887B031
:10282000012832D07F232946DB0511226631684614
:10283000FFF787FE264C6869214607F0F1FD0099F5
:1028400007F054FDFE1E314607F020FB686121466B
:10285000286907F0E5FD029907F048FD314607F0C9
:1028600015FB286107F0CAFA0446FEF715FE04843A
:102870002E46603630792C46803400282AD0012834
:102880007ED0022801D0002030713846A2E6000038
:10289000A0040000AC040000680300000034004005
:1028A00000401C46409C0000400D0300005A62029C
:1028B000150500007C29004078050000D0040000C8
:1028C0000000C8421D050000040600002A050000A3
:1028D0000000E0405C48008A07F0D4FA696907F01C
:1028E00075FD10D2A07A5849401CC0B2A0728989E7
:1028F0008842CAD36869A8610120A073074653497A
:102900000620087015E05048406807F0BBFA2969B6
:1029100007F05CFDB9D2E07A4B49401CC0B2E072CE
:10292000C9788842B1D30220A07301274748042107
:1029300001700120464930710870FEF7ADFDA030EE
:1029400064248471FEF7A8FDA030C471FEF7A4FDD5
:1029500080214182FEF7A0FD052101753D497820C7
:1029600088803D48007800288FD0FEF795FDFF2134
:1029700001314182FEF790FD06210175032000E040
:1029800002E03649487580E72F48806807F07AFAF8
:10299000296907F09DFD50D22B48408A07F072FA52
:1029A000696907F095FD48D2A0892749401C80B28B
:1029B000A081CA892A49904202D3887E002805D086
:1029C0001A2008560028DEDD00203AE00020307191
:1029D0001F49A0730870A081FEF75EFD402141826F
:1029E000FEF75AFD042101751E481F4D007B00288B
:1029F00011D0012028701749782088801648007867
:102A00000028C0D0FEF748FD80214182FEF744FD3A
:102A10000521017539E7FEF73FFDA030642484717C
:102A2000FEF73AFDA0301E21C171022028700F4927
:102A3000012008700748848027E7A0890028A2D0D9
:102A4000401EA08121E7000068030000150500007A
:102A50001D0500008C03000026050000380300005F
:102A6000C01400007C0300002705000028050000BA
:102A7000F0B59DB0054600F01BFE04F0C1FC924885
:102A800012210388027A1F2002F00EFD02F07FFE61
:102A90008E488F4C817D00291AD0C07D002817D028
:102AA0008C4812231F2221790BAE0FC687492C2296
:102AB00014396846FDF7C6FD844820380EC80FA8B3
:102AC00002F075FE814838220FA92038FDF7BAFDC3
:102AD00001F048FE01F0BCFE7F4802F0EAF87F4EAC
:102AE000014630707E4A7C4802F02FFB3070014670
:102AF0000122794802F082FC307077482C21415E37
:102B0000406803F0A7FA77487749007809780843C6
:102B100001D103F011FD01F015FA74490646086869
:102B2000401C086000210420FEF75BFF704A7148DA
:102B3000137800277049002B0ED0177000780128F9
:102B400005D0002000F033F806466F642CE00F70CB
:102B5000284600F06BF8F7E7684A1278012A02D09D
:102B60000078012809D10878401CC0B20870642898
:102B700001D2002601E0642008702079604A614992
:102B8000002808D00878002801D008280AD9207920
:102B90001070012007E017700F704F480D21203092
:102BA000C17401E0401C087030461DB0F0BDF8B59E
:102BB0000446FEF775FC0146FF31FF30002301316A
:102BC000133010251426504F0B74002C19D00022FE
:102BD00012E024244D4F5443E419678B0780A78BE0
:102BE0004780E4888480837142720572C6710C7CD0
:102BF0000A30641C0C74521C434CA4789442E8D8EC
:102C000010E000220BE003804380838083714272D6
:102C10000572C6710C7C0A30641C0C74521CBC78A2
:102C20009442F0D8087C497C4018F8BD70B5044641
:102C3000FEF736FCC11D0022F9310A742546102228
:102C4000FF354A744135698B0123022921D00146A1
:102C5000FF31022281314A801A22AA5E632A28D0DB
:102C6000652A29D06D2A29D0772A29D04B800021C6
:102C70004A008B001219FF321B186132FF33813377
:102C800055889D80D289491CDA800629F0D301201D
:102C900070BDFF30E11D8130F93143808A8AFF34F5
:102CA000828021342288C280C98A01816188418161
:102CB000EDE7FF22033204E0154A02E0154A00E086
:102CC000154A4A80D3E70000F0020000AC1600006D
:102CD000C0140000C4160000AC0D00003405000054
:102CE00038050000290500002A050000180300002F
:102CF0005405000063050000620500006105000046
:102D00001A0500001B050000FC020000DC14000096
:102D100002020000020300000204000010B50120BE
:102D2000FF23532109064B6004220A624B620022F2
:102D30008A62CA620B630A62FD244C604C62022400
:102D4000CC608C618A62CA620B638C68CB620A6356
:102D5000896810BD10B504460021FEF747F8FEF75C
:102D60009BFBC07E002802D02046FFF7C8FC002154
:102D70000720FDF703FE012010BDF1B584B0EE4839
:102D8000049E00784036012806D00A27B07BEB4D20
:102D9000002817D0022413E06427F7E7287805F00D
:102DA000C7FF00232A7819460498FEF778F83946B9
:102DB000287805F001FF002802D00020FEF71CFD56
:102DC000641EEBD2FEF768FB007E69460870019036
:102DD000FEF762FB007D694648700390FEF75CFBDE
:102DE000017E727F91400176FEF756FB017D727F76
:102DF000012489180175FEF74FFB007E7843D04F00
:102E000000902EE00126287805F092FF387805F032
:102E10008FFF002C00D10226287805F089FF0323BC
:102E2000082202210498FDF7E3FF01232A780021FC
:102E30000498FEF734F82878009905F0BDFE0028C4
:102E400002D00020FEF7D8FC31460498FEF772FE4F
:102E50003878009905F0B0FE002802D00020FEF777
:102E6000CBFC641ECED2FEF717FB01990176FEF76C
:102E700013FB0399017503210620FDF77FFD012057
:102E800005B0F0BD70B50546FDF722FF0321052012
:102E9000FDF774FD2846FFF75DFFA94C207805F08B
:102EA00047FF00212846FEF745FE0A21207805F05D
:102EB00083FE002802D00020FEF79EFC012070BD9A
:102EC00070B505469C480078012820D00A24284681
:102ED000FDF7FEFE03210520FDF750FD2846FFF714
:102EE00039FF974E307805F023FF00212846FEF782
:102EF00021FE2146307805F05FFE002802D0002038
:102F0000FEF77AFC2846FFF738FF012070BD6424E5
:102F1000DDE70120704770B5044603210520FDF769
:102F20002DFD874D287805F003FF00212046FEF790
:102F300001FE0A21287805F03FFE002802D000207B
:102F4000FEF75AFC2046FFF718FF012070BDF3B5CD
:102F5000074683B020300290407F0190794890244A
:102F60000578012605213846FEF707FE8A2D18D080
:102F70000ADC112D21D004DC002D1ED0102D1DD116
:102F80000CE0122D1AD118E028468B38030007F008
:102F90007DF9070A150C0E1015121500002426469F
:102FA0000CE0694C0AE0694C10E0694C0EE0694C99
:102FB0000CE0694C0AE0694C08E00026852D12D02F
:102FC0008C2D10D0002D0ED0102D0CD00120009093
:102FD00002980121037FA0B289074118B86B019ABA
:102FE00080B2FDF782FF0621386C06F04FFB012905
:102FF0000AD1012E08D1FEF74FFA007B002803D139
:1030000000210220FEF708F9049805F099FE37E741
:10301000F8B504460546484840350078012840D0B8
:103020000A273E4603210520FDF7A8FCA87B434D57
:10303000002811D0287805F07BFE03230822022106
:103040002046FDF7D5FE3946287805F0B5FD002865
:1030500002D00020FEF7D0FB287805F069FE40483A
:103060000221437802782046FDF7C2FE01232A7828
:1030700000212046FDF713FF3946287805F09CFD16
:10308000002802D00020FEF7B7FB03210620FDF741
:1030900075FCFEF701FA206C294F2A4D002806D155
:1030A00002E064273E46BDE72878082808D131466B
:1030B000387805F081FD2B4801782046FFF747FF5F
:1030C000387805F035FE2848007805F031FE0321F8
:1030D0002046FEF72FFD24483146007805F06CFDB0
:1030E000002802D00020FEF787FB387805F020FE8C
:1030F00029782046012220301C4D852902D08C29B8
:1031000007D00EE00092037F427FA06B184980B287
:1031100005E00092037FA06B012280B22946FDF7F3
:10312000E4FE204624222946663006F04EFA206C42
:10313000401C20640120F8BD74050000A0040000BC
:10314000AC040000FC0200000C1800007C29000008
:10315000681C00006036000020350000C42000001C
:103160006803000072050000AD0400000034004058
:103170009000004010B501460120FFF705F810BD92
:1031800010B50146042000F017F810BD10B5014637
:10319000012000F011F8002010BD10B501460320F9
:1031A00000F00AF8002010BD10B50146012000F023
:1031B00003F8002010BD0000F3B583B00546FEF70C
:1031C0006FF929243A4F00266406012D0BD0022DF9
:1031D00009D0032D07D0042D61D00020FEF70CFB91
:1031E000012005B0F0BD3348049940690090324891
:1031F00006F04CFAF16B0191316C02912F4921627A
:103200002E49503121622E490E620F22CA6228498E
:103210000E60A6602B49F1632B4931642749523176
:103220002162002100BF00BF00BF491C3229F9D331
:1032300026492162012767621E4B58619861072267
:103240001A61032D17D000990498FDF73FF9276202
:1032500066620198F0630298306415481C49016069
:10326000174804210162022DBAD101F0A8FA1948C9
:103270008777C777B4E704990098491C0BD01349A6
:10328000216230BF2662512109060E6058619861A3
:103290001A61A760DBE70D4909312162F2E77D2061
:1032A00000013E60A061032060610120606197E73A
:1032B00000E100E000E000E050C30000A47B00005B
:1032C000800000520101000005010000F67F0000AF
:1032D000E1200000BC1B0000F1B584B0FEF7DCF873
:1032E00004466034FEF7D8F82030067A0025FEF751
:1032F000D3F82030C7792068009060680190A068FA
:103300000290A0690390FEF7C7F8FF3001304189B1
:103310000498FFF7BBF9FEF7BFF820300572FEF7FF
:10332000BBF82030C571256065605448A560A06178
:1033300000210720FDF722FB0398A0610298A060FE
:103340000198606000982060FEF7A6F82030C771F1
:10335000FEF7A2F82030067205B0F0BD70B5044645
:10336000FF3405461534FDF7B3FC6821204606F00E
:103370008BF94348606342482430A06340482438B6
:1033800020644048E063FEF787F8FF300130817920
:10339000FF2059304153FEF77FF8FF300130002104
:1033A000C1712846FFF798FF374C207805F0C0FC24
:1033B00000212846FEF7BEFB0321207805F0FCFB28
:1033C000002802D00020FEF717FA012070BDF8B5E2
:1033D0002D4C06460027207805F0AAFC2B4D2878B6
:1033E00005F0A6FC03210520FDF7C8FA00232A7882
:1033F00004213046FDF732FD0321287805F0DCFB7F
:10340000002802D00020FEF7F7F901210620FDF781
:10341000B5FA306C052801D23846F8BD0521304692
:10342000FEF788FB0321207805F0C6FB002802D0B8
:103430000020FEF7E1F900210320FEF7D2FA304622
:1034400005F0FBF8050017D011490120087011495B
:103450000870FEF721F83446FF34FF304134013064
:10346000618BC1711A200C49205E8862FEF714F846
:10347000018A3046FFF70AF92846F8BD22F5000018
:10348000003400400C180040AC040000A004000010
:10349000630500005405000074040000F8B50446FC
:1034A00005468034208A774B1022C11A764F0026B9
:1034B000984279D009DC7549401864D0012854D06D
:1034C000022874D003280DD154E00A290BD00B290F
:1034D00002D012297ED17BE0608A05287AD13A7029
:1034E0000120387376E06A486A490278012A07D0D9
:1034F00006700E704035A889674F00280DD011E086
:103500000E700670FDF7C8FFFF30013001214170D9
:10351000FDF7C2FF162181705CE0FDF7BDFF203092
:10352000407A3870FDF7B8FF203001214172A88938
:10353000401C80B2A8810A2801D2002011E0FDF7CA
:10354000ABFF203039784172AE810C2005F05FFE70
:103550000020C043FFF71AFEFDF79EFF1621817081
:103560000120002836D10120F8BD7D200001FFF7A1
:1035700007FE2FE0608A06282CD8082038704749BB
:10358000608A088026E02846FFF7C8FB3873FF21D1
:103590005320000641600422026241628662C662D4
:1035A000016317E000E002E003F008FE98E7102056
:1035B0003870284603F07AFCF860FDF76DFF16219D
:1035C00081700121284602F0F7FF1020387001E0D9
:1035D000608A60832682C6E710B50446FFF75EFF67
:1035E000FDF75AFF807855280FD0FDF755FF2C487E
:1035F0000178012905D00021204602F0DDFF0120DD
:1036000010BD002101700121F6E7204600F001F80D
:10361000F5E7F8B506460027FDF73EFFC07E002817
:103620002CD03046FFF7F6F81E49012806D008785E
:10363000012823D11C48007900281FD130460025DD
:103640008030C572857285811648344600786034B2
:1036500000280DD015480078012810D0FEF733F867
:1036600025710127FDF718FF222181700D48057093
:103670003946304602F0A0FF8520E070F8BDFDF726
:10368000EDFFF3E705080000FC020000FFF7FFFF75
:103690006105000063050000EC04000078050000EF
:1036A0008805000028050000C01400002705000060
:1036B000704700007047FF4923200870FE4916201C
:1036C00008707047F8B5FD48002602460188403270
:1036D0009170374606803546F84A680084181020F5
:1036E000205E002822DDE18E032904D2491CE186F8
:1036F000E08327821BE01E22A25E811A09B2002904
:1037000001DA494209B2642348435A43101864312C
:1037100005F0C6FF00B2E949E08320820A88521C06
:103720000A80864203DA06464D8000E0E7866D1C7B
:10373000EDB2052DD0D3F8BDFFB58E46E049E24A83
:103740000B79E04981B009784900525A022B3DD0EB
:10375000154624214843DD490023461803991A20C1
:10376000305ECB5EC11A00D5191A8C4604991C2410
:103770000027345FCF5FE11B00D5391B6446641816
:1037800011198C464F107146C90730D0504363431E
:10379000C018C019614605F083FF03990022088014
:1037A00004991C20305E8A5E684362438018C01909
:1037B000291905F075FF0499062208800A9800234C
:1037C000B25EC35ED01A05D4014604E051008AB24D
:1037D0008DB2BEE7991A6431002800DA981A58436E
:1037E00064235A43801805F05BFF0A990880002083
:1037F00005B0F0BDF0B50746B14885B0406901900D
:10380000B348B44C0290208D1F2105F03FFFB24D0C
:1038100046086E80608D112105F038FF4008A880B1
:1038200003903121AA4805F02DFF30204743AB48D3
:103830003C18A1480627E75F01783846009105F05B
:103840002FFF287000994843381A687001202821FA
:10385000615EA34F8200D2190223D35E1A118B1A24
:1038600000D5531AB34202DA401E287003E0401C10
:10387000C0B21F28EED901202A22A25E8100795E03
:103880000B11D11A00D5991A039B994202DA401EF6
:10389000687003E0401CC0B21128EFD96A7829781B
:1038A000D31E5CB2CB1CD21CC81E40B25BB252B25B
:1038B0009E469446002800DA0020002C00DA0024FE
:1038C0007C4A1278521F964501DD52B29646009A04
:1038D000921F944501DD52B29446C2B2091A0320E8
:1038E000401AC3B220E07C49E0B249780D1B0321A5
:1038F000491BDD00ED1AC9B200950FE06E4D2D7821
:1039000055432D186E00019D401CAD5B009EAD100F
:103910007718029E491CF555C0B2C9B26045EDDD6D
:10392000521C5B1CD2B2DBB27245DCDD60E7F7B53E
:103930006C4886B00078002802D0002009B0F0BDA5
:103940006948644CC17D0591007E0390208D0290F2
:1039500080009B2105F09AFE0746608D0490800050
:10396000552105F093FE064606980025455F079809
:103970000024045F5C4A19201056059900900298B3
:103980004008019000297CDDBD4220DAFF21E81BC0
:10399000233148438011C01905B2E321284605F0C0
:1039A0007FFE0006C10D4C48801D405A0090281A29
:1039B00047B20621384605F073FE089940B28906E1
:1039C00034D51937192F31D2009908182DE00298F3
:1039D000401BB84207DA059AC01B50438011029978
:1039E000C019081A21E0E321284605F059FE000617
:1039F000C10D3948801D405A0290281A47B206214D
:103A0000384605F04DFE089940B2890605D51937AC
:103A1000322F02D80299081805B201990098491B63
:103A20004843019905F03CFE401905B22E491A277A
:103A3000CF5728490398498D4908009100287DDD1A
:103A4000B44225DA0399A01B48438011801904B2BF
:103A5000A221204605F024FE0006C10D1E481830A4
:103A6000465A0621A01B47B2384605F019FE0899B0
:103A700040B289067DD51937192F7AD2301877E0F0
:103A8000FFE7BD42D2DB0298C01BA842C5DACDE7F2
:103A90000498001BB04240DA0898800601D5E41E65
:103AA00024B20498039A011B891B51438911891977
:103AB000401A1BE04505000046050000D416000032
:103AC000C01400001D05000020040000DC140000EC
:103AD000620D0000AC0D0000EE040000501100006B
:103AE00012B300105C0500008C03000004B2A22198
:103AF000204605F0D5FD0006C10DFE48465A0621B8
:103B0000A01B47B2384605F0CBFD089940B28906A4
:103B10002FD57F1E182FB1D92BE0A221204605F00A
:103B2000BFFD0006C10DF348405A0190201A46B26D
:103B30000621304605F0B4FD40B200E00DE00899E2
:103B4000890605D51936322E02D80199081804B213
:103B500000980099001B784307E0B44209DB049801
:103B6000801BA04205DB081B784305F099FD001976
:103B700004B20698058007980480DEE6FFB587B09A
:103B80000D4614461E46119F079806F073F90090E3
:103B9000284606F06FF90190204606F06BF9029076
:103BA000304606F067F90390109806F063F9049028
:103BB000384606F05FF90590BD4210DD1098001BF5
:103BC00006F058F90546B81B06F054F9294606F0E8
:103BD0003FF80746009906F023FC01990FE007988B
:103BE000201A06F047F90746701B06F043F93946DC
:103BF00006F02EF80746049906F012FC059906F027
:103C000075FB06463846029906F00AFC039906F051
:103C10008BFC05467800000E0FD00121384606F0D7
:103C200035F904462946304606F08AFC214606F05E
:103C30000FF806F0BDF80BB0F0BD2046FBE770B5FD
:103C400004AC70CC0022002802D01E2807D00CE063
:103C50000020205E002800DA22801A8005E0002083
:103C6000185E002800DA1A802280002908D0102966
:103C700005D10020285E002800DA2A80328070BD3D
:103C80000020305E002800DA32802A8070BDF0B556
:103C90009446994A0025994F54692B46FE56CA5CB2
:103CA00036187600A65F5B1C564375195BB2042B71
:103CB000F4DB4200A25E0B795A4355190523FE1826
:103CC000203E1F22B25616187600CA5CA65F5B1C07
:103CD000564375195BB2092BF1DB6046054128B2EA
:103CE000F0BDFFB5064689B00020079084481F4606
:103CF000017830460D4605F0C9FC04466843301A89
:103D000085B2701E0A990090701C019000291FD086
:103D10007A4A0321515604238919D35676489A19B1
:103D20004069009B7600865F1B040496019FDB0BB5
:103D30001204C35A6E46B381D20B89B2825A3284BE
:103D40004900415A3F043183F90B405AB08234E0B4
:103D50007A7A39463046FFF79AFF049000987A7ACB
:103D600080B23946FFF793FF6946888101987A7AD5
:103D700080B23946FFF78BFF6946888260487A7ABD
:103D800000783946301A80B2FFF781FF6946088310
:103D90005B487A7A00783946301880B2FFF777FFAF
:103DA0006946088405AA03A908A86E4607C606AB9B
:103DB00069B260B2049AFFF742FF0B98514EC007F8
:103DC0003ED06A461821515E2020049B105E994225
:103DD00003DD0B46814200DA0346994211D183424A
:103DE0000FD1A00080190621415E1298002C0160BD
:103DF00004D045480078401F844243D101200DB0D3
:103E0000F0BDA20097190A22BA5E00920190062224
:103E10000220BA5E385EFFF7B1FE002801DA00200A
:103E200003E03A49884200DB08461299002C0860FA
:103E300004D035480078401F844201D1012007900A
:103E40000B98800740D568460C21415E1422049BE4
:103E5000825E994203DD0B46914200DA1346994295
:103E600012D1934210D1A80080190421415E139809
:103E7000002D016004D022480078801FA84201DC98
:103E80000220BCE70020BAE7AC00A0190827C75FF2
:103E9000019200970422825E305FFFF76FFE0028D8
:103EA00001DA002003E01A49884200DB0846139932
:103EB000002D086004D012480078801FA84203DC5F
:103EC0000798801C00B20790079898E77CB50D46CC
:103ED000242148430F490B4B41181F20085630211D
:103EE00048430D4901924418164600958833E088EE
:103EF000032213E006050000C01400003D05000089
:103F00004605000012B300104505000011760000C0
:103F100084410000DC140000501100000021FFF774
:103F2000E0FE002805DB012803D0022801D0032889
:103F300007D101960095E088FE4B03220121FFF78F
:103F4000D0FE7CBDF0B5BDB00020079001200290EE
:103F500007200E90FDF7A4FA04460990FF34F648B6
:103F6000133427460078643701281ED0F3480078C0
:103F700001281AD0F2480078002817D0002018A98C
:103F8000087348730190EF48069001982421484334
:103F9000ED4903900D5AFF200230054204D0680617
:103FA00006D54821A94303D00FE200203DB0F0BD63
:103FB00018A8007BE5490A908978884205D34021FA
:103FC0000D43E14803994552FFE1E1492846084283
:103FD0000DD0DD48039930AA0818418811858188E1
:103FE0009185C1881186203000780290ECE0D64996
:103FF0000398062246181F20305630210B90484364
:10400000D4490F904018009005904089D249C0B221
:1040100007900598825E0D92097810460C910891E0
:1040200005F03EFBC0B2089904900D9A4843101A5F
:10403000C0B208900598C74982780F98085C101A9A
:10404000C0B284460598C64AC17840781278081AEA
:10405000C1B2C2488018027D68050FD57069BA4B9D
:10406000904202D2401C7061AFE101208002854382
:104070002020054303981D5201200290FF2021308B
:10408000054219D1B7480078012815D004980028B6
:104090000DD0B54A1278921F904208DA089800288D
:1040A00005D00E9A0C98821A089882423EDC60462F
:1040B00005283BD2052939D23BAA3AA90198FFF736
:1040C00005FF002825DA00988089400715D5049857
:1040D000984A8000883A81180620085E0699497D32
:1040E000084130A908850898800081180420085EDE
:1040F0000699897D084130A905E0009830A9008D16
:1041000008850098408D8885E80516D50220029024
:1041100013E0069830A9427D2820085E10410885EA
:104120000698827D2C20085E1041ECE7009830A9AB
:10413000008D08850098408D88852A463BA93AA8BD
:10414000FFF7F5FB009841698548007842008348F5
:10415000805E091A09114000081800B230A90886CB
:10416000FF2800DDFF2008867069012810D0B08983
:1041700030823089B081F08970827089F0817088D6
:10418000098D081A308130A9B088898D081A70818C
:1041900030A8008D708030A8808DB080A80613D51F
:1041A00072480078012803D10B9840B2FFF722FB38
:1041B00030A8008D708330A8808DB08330A8008E29
:1041C000F0802036029830705F48039930AB0E18AB
:1041D0001A21715E2820185E8C46081A1C212C2298
:1041E000715E9A5E40438A1A5243821800202B0760
:1041F00001D5102021E0AB0601D504201DE0029B73
:10420000012B1AD1564B55481B78C01820308079A5
:104210004043904208DB2120805D400704D5604682
:1042200030AA10859185E8E73CA800903BAB3AAAFC
:1042300029460198FFF780FA082030AA2821515E0C
:10424000002901DA002111853E4913462039282230
:10425000098D9A5E914201DC491E19852C21595E17
:104260001A46002901DA0021918536492C2220398D
:10427000498D9A5E914201DC491E99853C498A78B4
:10428000002A02D1CA79002A31D01A8D0A990C234A
:1042900059431BABC9184A8030AA918D18AA127BCA
:1042A0000C235A431BABD21891803FE007996AE078
:1042B000022100E0012118AA127B0C235A431BABF8
:1042C000D218D17218AA127B0C235A431BABD218F6
:1042D0000199117318AA117B491C1173290765D51F
:1042E00000207083B083F080203630706CE042078D
:1042F00002D50A7A002A09D0C20602D58A7A002A93
:1043000004D00207EAD5497A0029E7D11A8D0A9923
:104310000C2359431BABC9184A8030AA938D18AAA5
:10432000117B0C2251431BAA89188B8030AA3021A3
:10433000515E1FE09AB300106105000063050000A4
:1043400018050000CC0D0000DC140000FC02000089
:104350000C0A000050110000460500003803000060
:104360001D05000014050000450500005E05000065
:104370007C03000018AA127B0C235A431BABD218F3
:10438000D180002992D118AA127B0C235A431BAB6F
:10439000D218118118AA127B0C235A4302211BAB9D
:1043A0000143D2189172E90584D581E730A9098DBE
:1043B000718330A9898DB18330A9098EF1802036AF
:1043C000029931700221084370700198401CC0B2FC
:1043D00001900C2800D2D8E5A54D2879002811D0ED
:1043E000A44900200A8D1BAE08E00C214143891925
:1043F0004B88D31A5B1E401C4B80C0B218A9097BA6
:104400008142F2D86879002811D09A4900204A8D5B
:104410001BAE08E00C21414389198B88D31A5B1E1F
:10442000401C8B80C0B218A9097B8142F2D8E87881
:1044300000280FD000201BAB08E00C214143C91815
:104440004A888D884D80401C8A80C0B218A9097B9B
:104450008142F2D8099D0026FF35013586482E7429
:104460000078002803D018A80021027BC5E083480B
:104470000078012802D0022832D053E018A9097B25
:1044800000208C4617E00C2102464A431BA9511814
:104490004B888722D20093420BD88988FF22E132D1
:1044A000914206D32D225201914202D8734A022131
:1044B0001170401CC0B28445E5D8704800780228CD
:1044C00030D1012018A908738720800010A9C88561
:1044D0000F208001088618A9887D102108431FE05D
:1044E00018AA127B0021084694460AE00C230246D3
:1044F0005A431BABD218927AD20600D40121401C39
:10450000C0B28445F2D8012318AA13738720800013
:1045100010AAD0850F2080011086002910D0062017
:1045200018A988756A221FA96846FCF78BF81BA892
:104530000FC803F07AFD51480078022809D017E02F
:1045400018A9887D1021084318A988754B490B705C
:10455000E8E7FCF7A5FF0146FF3181310322009116
:104560004A8048484649006803F0D5FD0099888094
:1045700018A9097B00208C4621E00C2102464A4301
:104580001BA951184A8822808A8862808A7AD306B9
:1045900001D5A68002E03C4B1B68A3800B89A37168
:1045A000E271CA7A2272354A1278022A0AD0097B4D
:1045B0006172297C0A34491C401C2974C0B28445AC
:1045C000DBD81CE06672F4E70C200B4643431BA8C3
:1045D00018184388238083886380C388A380038955
:1045E000A371837AE371C37A2372007B6072287CA3
:1045F0000A34401C491C2874C9B28A42E4D8FFF727
:1046000061F8224B6E74002021494200511810229B
:104610008A5E002A0ADD1A5C402422433A70102286
:104620008A5EFF2A00DBFF227A7008E02A228A5E77
:10463000002A08DD1A5C202422433A707E706A7CCE
:10464000521C6A74BF1C401C0A8AC0B24A850528E5
:10465000DAD30F484188818308480078022803D1C3
:10466000687C1021084368741020285E9EE40000D6
:10467000FC020000AC0D00005C05000029050000F4
:1046800000BF001058050000FC1C00000CB3001017
:10469000D4160000FEB5374800901620844612213B
:1046A000354801910078364D410034480818408A59
:1046B00000230290304C00985900247808180022FA
:1046C0001146A646660005E04C00045F002C00DDA4
:1046D000A2186144A942F7DB02998A4216DB2749F6
:1046E0007418E6887144897B56430E4100210F46B9
:1046F0000AE04A00845E002C05DDB44202DBA41B04
:10470000845200E087526144A942F2DB5B1C0198AD
:10471000DBB28342CED3FEBD30B51A4A10780028F2
:1047200001D0401E17E01448174C0078174B0028A2
:1047300016D017480A21415E0F48007840007829BA
:104740000BDDFF2591356943185E8912814200DC3B
:10475000014621800420107030BD185A208030BDE1
:104760001888FBE700B5FFF7D7FFFFF793FF00BD01
:1047700070470000D82900401D0500001C03000000
:10478000AA020000210500001E05000038030000F9
:10479000C416000000201549154B0870487001220E
:1047A0001A70144A1080144A1080144A10708870CD
:1047B000C87008714871887111490870704710B548
:1047C000FFF7E8FF0F48002181738172C172818178
:1047D00000F050FE00F01AF8FCF764FE0A4801F001
:1047E0009AF8FEF768FF02F035FE10BD16050000CE
:1047F00024050000940D0000480500005C05000041
:104800005D050000FC1B000038030000FE48FD4968
:104810000160FE49C160FE490161FE494161FE49F6
:10482000C161FE498161FE49CA88028509894185C5
:104830001F2120304174112181740421417581753B
:10484000F849F94816218180F6495C3101607047CA
:1048500070B5F54AEC4806CA82604160F349F44BF2
:104860000978F74C4A00D21892888285F14A12885A
:10487000C285F1484118E4480A7920300275EF4AB0
:1048800013780122012B0DD0EE4B1B78002B09D1A0
:10489000ED4B7D261D683601B54207DD0A255D5FBB
:1048A000782D03DAC2740021217002E08979C17485
:1048B00022703C21017470BDF7B5E8B00021009171
:1048C000E248049103910291019105910078144608
:1048D0000890012807D1DE480079002803D1208202
:1048E000A0826082E082002030214143689A0791D3
:1048F00089188A89D2073DD04B89450046AA53536F
:104900004D6983003AAA0695D550CE69C5000AAA1A
:1049100052198F6917605660B44622AE0B6A75193A
:104920004A6A2B606A608E785CAD2E54CE7862AD98
:104930002E54689E079D9E46765D5FAD2E544E7840
:1049400065AD2E54009E069DAB19049D00937D1904
:10495000039B66465E410396029E73460495019D45
:104960009B196A41029301924A890599511889B2AB
:10497000059103E00021430046AAD152401CC0B279
:104980000C28B1D36999002089788E460CE069998A
:10499000820051184A794CAB521E1A54097954AA14
:1049A000491E1154401CC0B28645F0D8002166E073
:1049B0004CAD54AB685C5A5C90425ED0470046AD4B
:1049C000BC46EE5B5300EF5AF6196746EE530026DD
:1049D000EE523AAB87009600DD599E59AD19DD5174
:1049E000C500AC460AAB63441F685E68D3000AADDD
:1049F0000693EB181D685B687F195E410AAB634440
:104A00001F605E6022AB63441F685E68069B22AD38
:104A1000EB181D685B687F195E4122AB63441F6021
:104A20005E605CAB1D5C9E5CB54200D21E5462AE03
:104A3000355CB35C9D4200D233545FAE355CB35CF1
:104A40009D4200D9335465AD2B5CAA5C934200D9DA
:104A50002A54481CC0B24CAA54AE0CE0155C735CDE
:104A60009D4201D1555C1554355C9D4201D1535C8A
:104A70003354401CC0B28645F0D8491CC9B28E459B
:104A800096D800252580734860802846632246AB6F
:104A90003AAE4100595A00290BD02788B94201D9B2
:104AA000218002466788B94203D261808100715833
:104AB000A160401CC0B20C28EBD3632A5AD09000EE
:104AC0003058606062A8805CA0735CA8805C207332
:104AD00065A8805CE0735FA8805C6073009A0399AE
:104AE000D317049804F039FD474F20377A7D04F03E
:104AF00021FD06B22682009A0199D317029804F08C
:104B00002CFDBA7D04F016FD00B26082059921806B
:104B100000993D4A6160002E01DA258204E0118D82
:104B20008E4201DB491E2182002801DA658204E001
:104B3000518D884201DB491E61820898012819D1F4
:104B40001420205E002806D0C100081A1021615EE2
:104B50004018C01020821620205E002806D0C10018
:104B6000081A1221615E4018C0106082208AA0825B
:104B7000608AE0826BB0F0BDF0B5374F0023844609
:104B80005C1E3D787E7811E0E8188000C0194079FD
:104B9000884209D1E81844B2A000C0190623C35EB8
:104BA000934205DAC28003E05B1CDBB29E42EBD885
:104BB000002C14DAB8781E2811D28000C019C280E7
:104BC000BA7860469200D2191071B8788000C01986
:104BD00041717878401C7870B878401CB870F0BD8E
:104BE00070B530256943C46830396118048954436D
:104BF000E418CC800024E4430C8101248C818A7069
:104C00000A702BE0600E0000AC0D00005011000097
:104C100090130000A813000040140000C01300000F
:104C2000FC0200007C2900402C0500001D0500004E
:104C3000380300001E050000600300001A05000094
:104C40001405000023050000C4160000290500001B
:104C5000C01400002F750000E40D00000A71CB7035
:104C60004B704B710825455F5E0055436D00AD19D3
:104C700040680626405F9500FA4A4861AD18AE5F6D
:104C800005467543EE179B009A18CE6104238D618B
:104C9000D35E5843C2174A6208624C8170BD00223D
:104CA000F149012803D0887808704A7070470A706B
:104CB000FBE7F0B505460089A5B0C0B210902846C4
:104CC0002030817C00268A1CD2B20D922A680024F2
:104CD0005118C91C1D916969119129690C91E2490A
:104CE0008E70417C2091807C2190BB212868FBF74D
:104CF00047FC002081002A69401C56506A69C0B2F6
:104D000056500628F6D300203021414300220C31B2
:104D1000EB68401CC0B25A520C28F5D3002082E147
:104D200010996A6848434000101822900C99119815
:104D300011910C900020014683000C9A401CC0B2D7
:104D4000D1500628F8D30D990A9848431D99491E59
:104D500040181B9000205EE11B982E22401C1B90E7
:104D60000898AA5E4100229809180020085E824235
:104D70007EDC089B119AD3185A78002A78D1109AB1
:104D80001E2752000F928A1A1646203EF75F87426E
:104D9000EEDC0026965F8642EADC0226965F8642BB
:104DA000E6DC0A46203A1E26965F8642E0DC0222B6
:104DB0008A5E8242DCDC01269E700F9A1E27521802
:104DC0001346203BDF5F8742D2DC089F0C9BDE55F9
:104DD0000F9BC95E8142CBDC089B0C99C9184E70B1
:104DE0000223D35E8342C3DC8E700C2C7DD2601C08
:104DF0002390C0B209903021E8684C430419002088
:104E00000B90A9690A980870E969089808701B99BD
:104E1000099808700998FFF742FF2846089B0A9AEC
:104E20000999FFF7DDFE802E01DB0B96E5E0A9690D
:104E30000B981D9B095C1291E969095C1C91129900
:104E400010980D9A48431C99400049004018696821
:104E5000401812994A431C99591851180022825E31
:104E60000E920B9A521C12B20B920F9A831A00E008
:104E7000CEE01718821E801C039000939C460D986C
:104E80004B1E0292081A0D9A01978A1815931390D7
:104E900063469B1E0493491C14921691BB1E0593F6
:104EA000411E63469B1C06931791BB1C511E401C60
:104EB000521C199000201A920793189107461F90D0
:104EC000B80013A91E9008580178002910D009983D
:104ED00081420DD01E9A684680580022825E0E984C
:104EE000824200DD0246099800E08DE0FFF744FEB3
:104EF0001E98694608580021415E0E98814208DDDF
:104F00001E9813A9085801780998814201D0012000
:104F10001F907F1C7FB2082FD2DB1F9800286CD116
:104F2000820013A989580B78002B62D16B469B58DD
:104F300000221E939A5E2E23EB5E9A4259DB0E9B53
:104F40009A4256DC099A0A70484900230A5C129971
:104F5000511849B2AA698C46915545490A5C1C9979
:104F6000511849B2EA698E4691551E996269CB5E25
:104F7000761CD118616161468A003A4900235218B3
:104F80000621515E1E9AE769D35E36B25943A36982
:104F9000CA17C9187A41E261A16171468A00314994
:104FA000002352180421515E1E9A676AD35E59434A
:104FB000236ACA17C9187A41626221626189022292
:104FC000491C6181A2566146624500DAA170002148
:104FD00061566246614500DD22700322A256714689
:104FE000724500DAE1700122A2567146724500DD79
:104FF0006170401C40B2082892DB0B98B04200D090
:1050000011E72398C4B203E020980A9021980890F1
:105010000898401CC0B208902199884200D29BE6B3
:105020000A98401CC0B220990A90884200D277E6C4
:10503000104A0D49E868FFF73FFC204625B0F0BD57
:1050400030B53024D3686043C0180624045F52682A
:105050006300D55E4B00D35EAB420DDB0481C180A3
:1050600030BD0000B4B30010E40D0000A4B3001084
:10507000ACB30010940D00000824045F002C03DB87
:105080006400125F9342EBDD0181E9E7F7B58446E6
:105090000C4602983025C368614630206C4341437A
:1050A000A646CA18E41850696569401950619069AC
:1050B000A669D569E76986197D419661D561106A4F
:1050C000266A556A676A86197D4116625562D089DB
:1050D000E5894019D081108A258A401910825089AB
:1050E0006589401950819089A589284390810020C5
:1050F000A0810220022510566557A84200DA95705B
:105100000325032055572056854200DAD07070469B
:105110005D561856854200DD585401210120515634
:105120002056814200DD507006216046615EC0B2AB
:10513000029AFFF785FF0821615E002904DB6046C3
:10514000C0B2029AFFF77CFFFEBDF7B584B00498A9
:10515000049DC4680020BF4A203509E081008918F9
:105160000B795B1E0B714B795B1E401C4B71C0B2FF
:1051700091788142F2D8CDE000208446087930222F
:105180005043001942894879302358430019408917
:10519000101882B20420085603900520085601908A
:1051A000012032E0AB49830059180B793026029375
:1051B00073431B195E894B79302700937B431B197E
:1051C0005B89F3189BB2934208D21A460423CB564C
:1051D00003930523CB568446019314E0934212D1E6
:1051E000039F029B9B4EBB420DD1019F009BBB4284
:1051F00009D10623CB5E61468900891906268E5F98
:10520000B34200DACB80401CC0B292498B78834213
:10521000C8D8604681008F4804260F180520BE5765
:105220003856009086426AD0049830234268302075
:105230007043011906208C46085E009940005943CE
:1052400009190623CB5E105E5B00D25E904200DD42
:105250001046814A9289142A07D20F22EA74804BA1
:105260007E4A1B78D21812792A75EA7C4243287D3F
:1052700002410620385E824219DD60464269049888
:10528000808D824213DD4A69824210DD0A228A5EE5
:1052900060460A21415E5018297C884207DA71482D
:1052A0000078002803D170480078002827D03146C4
:1052B000049A0098FFF7EAFE0598664A401EC0B2BD
:1052C00005909078800080180188B9804088F88027
:1052D0009078401E907000990020CBB20BE08100C6
:1052E00089180F79B74200D10B714F79B74200D1BD
:1052F0004B71401CC0B2917881420BD9EFE7554900
:105300008878800040180288BA804088F8808878C1
:10531000401E88704F498878002800D02CE700266E
:10532000059F13E030207843001900908089C00762
:1053300008D109E03020704300198089C0070CD0E3
:10534000761C76B20C2EF5DB7F1CFFB20C2FE9D356
:1053500000200699074608604BE030207043001992
:1053600030220099FBF76EF900200099761C8881A5
:1053700076B2E9E7302078430619B089C00736D005
:10538000726900920192D317F169B06904F0E5F8EF
:105390006A7D04F0CFF800B2308502900390019A44
:1053A000716AD317306A04F0D8F8AA7D04F0C2F805
:1053B00001B271850398002801DA002005E0049805
:1053C000029A008D824201DB401E3085002901DAFD
:1053D000002004E00498408D814201DB401E70856E
:1053E000069801680098814201DA069908607F1CDE
:1053F000FFB205988742BDD307B0F0BDF0B50546B2
:10540000084617490978002923D0184B4900CB18C2
:105410000421595E164B1B68994201DD002A18D001
:10542000002217461146302461430C46EB680C34C9
:105430001E5BF60709D08E1C9E5759568E4204D12A
:10544000022802D3401EC0B21F53521C52B20C2A73
:10545000E8DBF0BDE40D0000C416000060030000AE
:105460001D05000023050000290500003803000089
:105470003805000010B50020F94905220446D20184
:105480004300001DCC529042FAD33821F54804F075
:10549000FBF8F448012120308174C474447581758F
:1054A000C175F148017010BD30B5ED4DCB0700D08E
:1054B000491CC9B24843002107E04C002B5BDBB21A
:1054C000934201D25B1C2B53491C8142F5D330BD62
:1054D0007047F0B5E54FE64839468D893B68E54AA7
:1054E0000121834205DDFF20D230854201D9917729
:1054F000F0BDDC4800242030C4747C680A26DE4DF0
:10550000BE5F2F78DD4D1B19ED68002F03D1DC4FF6
:105510003F7B002F08D0002B03DAAC4201DA0123D5
:1055200000E00023C3740FE0002B03DAAC4201DA81
:10553000012300E00023C374D24B1B78002B03D05F
:10554000322E01DAC17405E0C37C002B02D1037D49
:10555000002B0FD000238375447D002C06D0C47C23
:10556000002C05D0917743750375F0BD4175F0BDF2
:105570004375F0BD002242758175F0BDF0B587B06E
:105580001F2101911121029100260421415E039106
:105590000221415E16200590BB48B4463346B6460C
:1055A00035463446049132460090059850434100F8
:1055B00000980818002106901AE006984F00C05F76
:1055C000A84201DD054602E0A04200DA0446039F3E
:1055D000B84203DB36185B1C9BB207E0049FB8425D
:1055E00004DC84447046401C80B28646491CC9B223
:1055F00002988142E1D3521C0198D2B28242D4D3A4
:105600009A48614645810481066041608381714604
:10561000C18107B0F0BDFEB51F2086461620009060
:10562000994800240422015F825E08258918062219
:10563000825E455F0A27521989180C22825E112367
:105640008E180221415E0191C75F0022CD198F495A
:1056500084460295AE4208DA019D0A2D05DD0A2F27
:1056600003DD029C8C80012400E08A80142518262A
:10567000455F865F1C27AD191A26865FC75FF6193E
:10568000AD192026865FAF191626865F1E25019666
:10569000455F76190296B74207DA019E0A2E04DDAD
:1056A0000A2D02DD029CCC8002E0CA80002C06D0CC
:1056B00000246500641CE4B242539C42F9D3704656
:1056C000009D401E684345006046281800240426BB
:1056D000055F865F0A27AD190626865FC75FF61944
:1056E000AF190225455F0826865FAC46AD19AF426B
:1056F00007DA67460A2F04DD0A2E02DD0D81012438
:1057000000E00A810A250E26455F865F1227AD1943
:105710001026865FC75FF619AD191626865FAF198A
:1057200014260C25865F455FB446AE19B74207DAEA
:105730000A2D05DD65460A2D02DD4E81012400E0BB
:105740004A8116251A26455F865F2027AD191C263B
:10575000865FC75FF619AF191E261825865F455F5D
:10576000B446AE19B74206DA0A2D04DD65460A2DA5
:1057700001DD8E8102E08A81002C07D0002103E048
:105780004C00491C0253C9B29942F9D3FEBD00B581
:105790003F48FFF740FF3E48FFF7F0FE3D483E49D7
:1057A00000780978084301D1FFF793FE00BD0FB4DC
:1057B000F0B585B039481A990190394802901C9B80
:1057C00027480390052437480025002904D12F4994
:1057D00040318978002902D08472C5727CE0324958
:1057E0008A4202DA012110AA917700218172C472E3
:1057F000D80701D0581C00E01846C0B20090D80766
:1058000001D0581C00E01846C0B2864617490A204D
:10581000085E462801DD962106E0282801DD50219A
:1058200002E0192803DD28211948017206E0082248
:105830008A5E1821C943164919200872002248E0DF
:105840000098019950434000441803994518704648
:1058500050434100029808188446002135E00000BA
:10586000202500408C16000054050000C4160000DE
:10587000A0860100BC1B00001D0500008C03000079
:105880007C03000023050000D8290040D416000046
:10589000F0020000290500002A050000681C0040F5
:1058A0000C1800402C04000018FCFFFF0F4F4800AC
:1058B0002E5A3F7ABE4206D36646275A365ABF1B37
:1058C000275200262E52491C89B29942EED3521C0F
:1058D00092B21B988242B3D338220BA90A98FAF7E6
:1058E000B1FE05B0F0BC08BC04B01847F0020000DF
:1058F00070471723FE485942017049114170152124
:105900008170C943C17016220271491C4171012185
:105910008171C371704710B50446F749F5480860B6
:1059200000200871421E4A71C860012208610A7293
:1059300005228A71C8718876F04A21881180F04A60
:10594000014624234B43491CD0520C29F9DBFFF7B5
:10595000D0FFEC48046010BDF1B584B00020039086
:1059600006200290E448042686570C2E7EDA002496
:105970002420E3496043085A002803D0641C64B221
:105980000C2CF5DB049830214843DF4947180621E9
:10599000795EDE48009101780191009803F080FE65
:1059A000019A40B200994243891AD94A49B2127801
:1059B0005300D44A12689A18002805DC002E13D12F
:1059C0000420105E45100FE0D24B1B785B1F9842FD
:1059D00006DA002904DD029B0198C01A884201DC26
:1059E000002E09D00425555F7869A8422ED3C249FC
:1059F0000A69002A08D00AE00420105E0521800010
:105A000003F04EFE05B2EFE7C34A12680A610522B1
:105A10008A56002A0CDA224624235A43B84B4C718A
:105A2000BE4D9D52CA79002A08D10122CA7105E0F3
:105A30000225224624235A43B14B9D52FF23913322
:105A4000984206D38A7E521C8A7602E00399002986
:105A500019D024214C43AA49049A6118CA7701221B
:105A60004A610A8300220A814A8100E00BE08A81B0
:105A7000CA810A824A823A8D4A807A8D8A80C88099
:105A80009D48761C067105B0F0BDF0B524219C4CF4
:105A9000484301194A693023521C4A610022D2430B
:105AA000CA77225A944D9A430123DB021A43822378
:105AB000164622521E402B795B1E5BB2002E03D08D
:105AC000002121522B71F0BD8126B60017463742C6
:105AD00020D08A7F8E4F521CD2B28A7789493F7874
:105AE0000968C919097E8A42EDDB215AB143215266
:105AF0004A0609D5002121522B711A202856002868
:105B0000E1DD401EA876F0BD08221143215202209B
:105B1000E871F0BDD307FCD004231A4322520120C0
:105B20008877F0BDF0B524210446754A4C43115BDB
:105B300083231B018BB099436F4F11533B798E0721
:105B40005B1E5BB205931A23FB5607935B1E5BB289
:105B500006931346E518002E32DA1F2169563023CA
:105B60005943694BC91818234969FB5E994220DBE8
:105B70006B6939465B1C6B6105257D57C979002D22
:105B80000FDBB879834219D3105B0223984321239A
:105B900018431053624A6420107000290ED101206E
:105BA00082E0135B0225AB435C4D2B4313537871AA
:105BB000F3E7002010536DE00698B8760BB0F0BD07
:105BC00054484A070078401F0290504800780190DE
:105BD000801F08904E4800780490430049480068B0
:105BE00003901E18002A61DA68691F21401C686151
:105BF00009906956302041434348081806210A900D
:105C0000415E00910199009803F04AFD019A40B26B
:105C100000994243891A49B2002807DD029A90424E
:105C200004DA002902DD089A8A4209DC072801DB30
:105C3000012902DA0C20305E08E00C20305E0DE015
:105C4000072801DB012907DA0820305E0A21C0009D
:105C500003F026FD00B201E00820305E0A9A2849D0
:105C60005269824204DB0A5B042082430A53A5E79F
:105C7000A87F401CC0B2A877049B039AD218127E5A
:105C800090429BDB085B042290430853420607D5F1
:105C90000020085305983871079800288CDC8DE7A0
:105CA0000822104308530220F87187E7C80785D0FF
:105CB00068691F21401C68616956302041431248C1
:105CC000062708180090C75F0199384603F0E8FCE2
:105CD000019940B24143791A49B2002826DD029A5F
:105CE000904204DA002902DD089A8A4224DC19E095
:105CF0003D050000CDAB3412C01400001E050000AD
:105D0000DC140000500500005011000046050000A2
:105D10001D050000450500001803000001040000F7
:105D200022050000072801DB012902DA0C20305E81
:105D300008E00C20305E0DE0072801DB012907DABE
:105D40000820305E0A21C00003F0AAFC00B201E086
:105D50000820305E009AFE495269824287DA085B69
:105D60000422104308530120A87727E7F0B500214B
:105D7000F74C9DB00F46084624225043225A130781
:105D80003CD553061AD508239A432252F14D0520DB
:105D90002856884232D10020C0436871002048262E
:105DA00024224243A25AD30701D0324204D0401CDD
:105DB00040B20C28F4DB21E068711FE0E54B27526C
:105DC0001879401E18711A201856002801DD401E4F
:105DD000987605201856884210D10020C04358718B
:105DE000002024224243A25AD50703D0120701D42F
:105DF000587103E0401C40B20C28F2DB491C49B248
:105E00000C29B8DBD4480278D448530001685818EC
:105E1000408B8D1840431B902B46203399780020EF
:105E200049438C4619791A784900AB7F8E46002188
:105E30000CAC2154242104464C43C5490FAF6118D2
:105E400008240C5F4E8825465D431541AE19450078
:105E50007E530A268E5F898837465E431641711845
:105E600015AE715364437F43E11964466143744640
:105E700021418500401C6C4640B261510C28D6DBA4
:105E8000B44804214156B648007881425FDD0024C1
:105E9000302021464143B3480A1890898646C007FE
:105EA0003DD00023DB43184600210CAD6D5C002D76
:105EB00021D12425A64E4D43755B002D1BD04D00EE
:105EC0000FAE178D765BBE1B36B2B44615AE755B52
:105ED000578D66467D1B2DB276436D437519AB42D7
:105EE00009D91B9EB54204D98F006E46F659AE42C1
:105EF00001D32B460846491C49B20C29D5DB0028A2
:105F00000DDB2421924B4143C918CC7701210CAB06
:105F100019547146022319439181FFF703FE641C53
:105F200064B20C2CB4DB8A4E00240CAD285D002832
:105F300007D124206043305A002802D02046FFF7C2
:105F4000A4FD641C64B20C2CF0DB1DB0F0BD002479
:105F50002046242148437E498446085A002847D0D9
:105F60000025ED43284600210CAA525C002A23D1CB
:105F700030220B4653437B4A9A1893899B079B0F09
:105F8000012B19D163000FAE178DF65A528DBE1B2F
:105F900015AFFB5A36B2D21A12B276435243B21838
:105FA000954209D91B9B9A4204D9A6006B469B597E
:105FB000934201D315460846491C49B20C29D3DB4C
:105FC000002812DB624A61468918C87701210CAAB1
:105FD00011543021484363490222401881891143FA
:105FE00081812046FFF79EFD02E02046FFF74DFD30
:105FF000641C64B20C2CABDBA7E7F0B552435B43E7
:10600000D2189712002321E01A4624246243845AAE
:10601000FF2502352C4217D0121808240C25145FD6
:10602000555F0E2664191025555F965F64190A2581
:10603000555F6443AD191226965FAA195243A21800
:10604000BA4201D30120F0BD5B1CDBB28B42DBD333
:106050000020F0BD70B53F4A50611183106942497C
:1060600000280CD04B78C018404B1B68984206D2D1
:106070003A48394B00681B78C018807D90710B89B5
:10608000CA880C213248FFF7B8FF39490870FFF77A
:106090006DFE344D00243020604340198089800714
:1060A000800F012802D12046FFF756FC641C64B221
:1060B0000C2CF0DB70BD30B500232E4C581E238015
:1060C00060801946480000190422825E0282002A7C
:1060D00008DD2A25455F002D02DC642A02DB03E08F
:1060E000322A01DA038202E02088401C2080491C09
:1060F000C9B20529E6D330BDF0B51F4800780028A5
:106100004FD01E4E124F0020242141437A5A002ABC
:1061100043D048231A4240D1CB191F241C573023A7
:106120005C43104BE5182823EB5E002B35D02A2466
:106130002C5F002C31D03588AB4208DBB588AB42F0
:1061400005DC73889C4202DBF3889C4225DD17E066
:10615000DC140000C01400001D0500005005000004
:106160003405000050110000FC020000180300007C
:106170003C050000D41600005F0500006405000027
:1061800040231A43F34C7A520223E371D30704D01D
:10619000530502D408231A437A52401C40B20C28FB
:1061A000B2DBF0BD7047F0B5EB48007800284FD166
:1061B000EA4914240C5FEA49EA4A0D7D4826242165
:1061C00003464B43D15A0F0513D4002911D0314255
:1061D0000FD19B181F21595630235943E24BCB183E
:1061E0000A21595EA14204DD002D02D1DF4B0121BD
:1061F0001970401C40B20C28E1DBDC49DC4B08780C
:106200000024002810D1DB4885896E2D0BD9406809
:10621000D94DA84207DA1878401CC0B2187003287C
:1062200002D9012008701C70CA480079002810D0DB
:10623000087800280CD00020242141430B46D15A75
:10624000CC0701D03143D152401C40B20C28F3DBC3
:10625000F0BDCA48CA4A04800878002809D01088CE
:10626000401C80B210800128F2D914800C701C7080
:10627000F0BD1480F0BDC34A01230021002801D0E5
:10628000137004E0B44811700170BF480171BF4839
:106290000370BF480170BF480180B8480180704753
:1062A000FEB5AE48878880790090BB48007B002807
:1062B0007ED0B448007800280BD000263446242035
:1062C000A8494443085B002802D04822104204D069
:1062D000D2E00120FFF7CFFFFEBDA2481F2120180A
:1062E000415630204143A0480D18698901916869E1
:1062F000002902D003F0CAF900E00020964909788D
:10630000002904D1A54A1278002A00D02827934AF0
:106310005388834279D9104683790198834274D295
:1063200094480A23C35EBB426FDA8A480079012889
:1063300008D19B480078002804D19148298D4180DC
:10634000698D818028212A20695E285E8C4D022378
:10635000EB5E5A1A00D5CA1A8049CB799A4206DCFC
:106360000422AA5E111A00D5811A994245DD83499B
:106370000888401C80B2088085490A78002A2FD1FD
:10638000764A1289824233D801200870854D9620C2
:10639000A880FA21E98032202881642068816983FD
:1063A000FBF77AF880214182FBF776F8052100E0BF
:1063B00070E001757C4802218170674800780028F0
:1063C0000AD0FBF769F8FF2101314182FBF764F83D
:1063D00006210175032068756D480078002807D0F4
:1063E00072480178002903D15A49097901290DD051
:1063F000584804214156012902DD604900200880E7
:106400006A480078002804D036E00FE001210170CE
:1064100032E054490822085B10430853C2072BD0CE
:10642000420529D440221043085325E0584B1878E0
:10643000002821D04F480A24045F508984421BDD84
:1064400000205A4A187010705648FA228280FF22A3
:106450001932C280642202814281782242830A2258
:106460005148002982700DD0FBF716F88021418237
:10647000FBF712F805210175761C76B20C2E00DAB6
:106480001CE7FEBDFBF708F840214182FBF704F84A
:106490000421F0E7464800780028F2D100242420A7
:1064A000254630494543485B002837D048221042F2
:1064B00034D16E181F2171562B48302251430818D1
:1064C000418901914069002902D003F0DFF800E022
:1064D000002021490978002904D130490978002990
:1064E00000D028271D494A88824211D9019A009874
:1064F00090420DD21F480A22825EBA4208DA308BDF
:106500001849401C3083485B08221043485305E07B
:10651000012030833C2088801E204880641C64B2A7
:106520000C2CBCDB0B4800790028AAD10B48642155
:10653000818032214180FEBD10B51E4800780128BF
:1065400007D0FFF7ADFEFFF72EFEFFF7D5FDFFF7F3
:10655000B2FD10BDC01400001D0500008C0300003A
:10656000AC160000DC1400005011000023050000F0
:1065700019050000C416000024FAFFFF4C050000B6
:106580006C05000027050000DC1B0000280500004A
:10659000250500004A0500007C0300003C050000C2
:1065A0001A05000038030000FC0200002605000068
:1065B0005F0500005C050000F8B5044606460020B3
:1065C00020646064902262622063614A62630832E0
:1065D000A26322461223203213771F2353772546C6
:1065E0004035A064A88101275A4A27651278C4362D
:1065F000092A04D0082A02D0102263231A552061E8
:10660000002901D0FAF752FFFAF746FF808CA083E9
:10661000FAF742FFA03000786877FAF73DFF007F75
:106620006060FAF739FF407FA060AF73FF2020362B
:106630003072FAF731FF018A2046FCF727F8FAF7A3
:106640002BFF55218170F8BD10B5434C00212078F7
:1066500002F0B2FA002802D00020FBF7CDF8207833
:1066600002F066FB012010BD10B511280CD01228D5
:1066700007D008280CD009280AD1364800781028FD
:1066800006D13649082001E034490420FAF7C4FD58
:1066900010BDC00601D501207047002070470121C0
:1066A0002E48FFF789FF0021084602F09DF92C498A
:1066B0002A4D284C087080352848FCF78DFF688BE0
:1066C0000028F9D127480021415E002902DB00F0B3
:1066D0007FFCF1E72078FFF7DCFF002810D160781D
:1066E00000280DD01D486030C07800090001102836
:1066F0000ED030281CD0802825D00020FBF77CF855
:106700002078FFF7B1FFFFF79FFF0028FBD0D3E70A
:106710008026FAF7C1FEFF3001304078002804D00F
:1067200001210220FAF778FD30263246102106E0DA
:106730000A48FBF7E0FA0128E2D18022302107481D
:10674000FBF7A8FADCE70548FBF7FDFAD8E70000FD
:1067500018170000FC020000A10400007C1B0000D0
:106760007205000078050000F749F64888600021AE
:1067700081800181C1804181F4490A78827349781E
:106780001346491EC9B2C1734B438381CB07DB0F4C
:10679000C9185143EB4A4900243202620161490899
:1067A000103151188908890081614031C161283157
:1067B00041617047F1B5FAF76FFEE34E04460127D9
:1067C00060343770FAF768FE203000258571FAF7DB
:1067D00063FE78218184FAF75FFE20300572FAF7B4
:1067E0005BFE20304572FAF757FE8777FAF754FEC2
:1067F000C576FAF751FE22218170FAF74DFE077631
:10680000FAF74AFE78214182FAF746FE0721017520
:10681000FAF742FE20304572FAF73EFE4776FAF765
:106820003BFE20300327C771FAF736FE4770E5605C
:106830002561C74F27606760C6486561A0601D205D
:106840008002A061C448E061C4482062009AC44844
:10685000C449130003F01AFD08050B131C1222464D
:10686000501208610862FAF717FE642105E008611A
:106870000862FAF711FEFF2191310182F8BDFAF7A3
:106880000BFE642101822760B2486760A060F8BDFA
:10689000FAF702FE203003210172F0E7FAF7FCFD5F
:1068A00020300572FF2029214906C8600120707040
:1068B000AD491020886308630320FBF797FCFAF7C3
:1068C000EBFD9A210182FAF7E7FD80214182FAF778
:1068D000E3FD07210175A548A061FAF7DDFD06215A
:1068E0004170F8BD086108620020FBF77FFC0120C1
:1068F000B07075703570F8BD086108620020FBF754
:1069000075FC35707570B570F8BD70B5FAF7C4FDDB
:10691000392149028167FAF7BFFD22218170FAF718
:10692000BBFD01250576FAF7B7FDFF216031018235
:10693000FAF7B2FD20300024C471FAF7ADFD8021D2
:106940004182FAF7A9FD07210175FAF7A5FD20306C
:106950004472FAF7A1FDC576FAF79EFD1E2505776C
:10696000FAF79AFD4577FAF797FD2030847170BDEC
:1069700030B57F4A7F4B804C00204100555A801C27
:106980005D52A042F9DB30BDFFB5002585B0122075
:106990000C462F4604901FE0049805997843400068
:1069A000021900264018029200900EE07100009833
:1069B0000191029A405E515E6422504302F070FEE3
:1069C000019A0099761C8852F6B25F488068C07BB5
:1069D000B042EBD87F1CFFB25B498868807BB8422D
:1069E000DAD8002034E00E9B002119540799095C85
:1069F00000292BD1049B926843435E00059B94467B
:106A0000D27BF71814E04B00FC5E002C00DA002467
:106A100063461B6A164646439B19CB5C0A260393C2
:106A20006643DB0036B2B34200DD6D1C491CC9B2BF
:106A30008A42E8D8012D08DD0399CA000A21614382
:106A40008A4202DD0E9A012111540025401CC0B279
:106A50003D4A9168897B8142C5D80023194630E0C0
:106A60000F9C002060540898405C002827D194684F
:106A70004E00A27B94461AE0049A42435500059AC0
:106A8000AA18925F002A00DA0022E57B276A4543B4
:106A90007D194D5D0A277A43ED0012B2954204DD5F
:106AA0000E9A125C002A00D15B1C401CC0B28445C7
:106AB000E2D8012B02DD0F9A012050540023491C1B
:106AC000C9B2214A9068C07B8842C9D809B0F0BDDC
:106AD00010B50121294800F02BF910BDF3B50022B3
:106AE00081B012201146009026E002980024445400
:106AF0004800019C844600199B68864600209F7BC5
:106B000010E0DC696546655B0C267543009E7446A3
:106B100046437600A65F0A246643B54200DA521C5B
:106B2000401CC0B28742ECD8082A02DB029801223E
:106B300042540022491CC9B2034B9868C07B88426A
:106B4000D3D8FEBD20350040740500007404000059
:106B5000888888888808888872011000CDCDCDCDBE
:106B60000000F0FF40000052C003005530740000E8
:106B70007C050040900000402E0200007C1B0000BD
:106B8000F8B5FE4EFE4FFF4D0024E86830613062DC
:106B90000221FD4800F0CCF8012C0BD03A46FB490D
:106BA000FB48F9F74FFDE868641CC043E860022C1D
:106BB000EBDBF8BDFFF7DCFEF5E7F3B5002281B0B3
:106BC00012200090104626E0029900240C540099EF
:106BD0009B6841434C000199DF7B61188E46002180
:106BE0004400A4460DE09C696546645B4D002601A7
:106BF0007446655F0A246543AE4200DA521C491CA4
:106C0000C9B28F42EFD80A2A02DB029901220A5444
:106C10000022401CC0B2DB4B9968897B8142D3D8EB
:106C20008FE710B50320FBF7E1FA0321D64800F007
:106C30007FF80020FBF7DAFA10BDFEB5D54E002034
:106C40003073FFF7EEFFCF4C1220A568CF49AF7B22
:106C500078434200D048F9F7F5FCE97B68694018B1
:106C6000C119CD48FFF7A9FFFFF78AFFA5681220D9
:106C7000AF7BC64978434200C748F9F7E3FCE97B9C
:106C80006869401879004118C348FFF727FF00F0F2
:106C9000ADF8A0681221807B48434200BB49BE4842
:106CA000F9F7D0FCFFF714FFA268917B50690090C0
:106CB00043180193D27B80184A0083184218B649C2
:106CC000B248FFF761FE10203070A068C17B827B64
:106CD00089184A004169B14802F077FC01203073FD
:106CE00000202EE7A74880688188828991420ED1D2
:106CF000C27B01895200914209D1827BC188520036
:106D0000914204D14089002801D001207047002021
:106D1000704710B59B4CA068002801D1FFF724FDF7
:106D2000FFF7E0FF002802D0A068FFF786FF10BD44
:106D3000F3B581B00E46FAF7AFFB07460120603786
:106D40001024944D0090330003F0A0FA070A0A0AB9
:106D50000A050A0F14003046FFF72CFD2C703AE0AC
:106D60003046FFF727FD2C700AE03046FFF722FD82
:106D70002C7020E000200090042E2CD0062E1AD07B
:106D800000210198FFF718FC0198FBF7E3FF844C02
:106D9000207801F0CDFF0023227819460198FAF7F8
:106DA0007EF86421207801F007FF002815D000202C
:106DB000FAF722FD11E001210198FFF7FDFBFAF738
:106DC0006BFB20300121C17139204002B8610F20D6
:106DD0000003B860D8E7FFF79CFF6A480021017004
:106DE00041708170491E81800098AAE600216648A2
:106DF0009EE7F8B50520FFF7DDFC00245F4E614DEE
:106E0000012728693061306202215F48FFF790FF57
:106E1000012C0FD05A4A5D495D48F9F713FC2869E7
:106E2000641CC04328616F70022CEADB0020FBF772
:106E3000DDF9F8BDFFF79CFDF1E770B50546F435C7
:106E40001223524A0024214618464843400086181F
:106E50002220305E491C0419C9B21F29F4D31F2116
:106E6000204602F01DFC4F498C4200DB0C46884254
:106E700000DB08462C83688370BD10B506214248AC
:106E8000FFF756FF4048FFF7D8FF3F494648896B58
:106E9000C089088000210220FAF7BEF901210220F2
:106EA000FAF7BAF93B491020087010BDF1B586B069
:106EB00001200490354800901220354D364E039045
:106EC00000240195029603210520F9F757FDFFF7ED
:106ED0001CFD00210698FFF76FFB0698FBF73AFFB1
:106EE000274F3046394602F0CDFB3946284602F09E
:106EF000C9FB2B4D287801F01BFF03230922022137
:106F00000698F9F775FF01232A7800210698F9F70A
:106F1000C6FF6421287801F04FFE002802D000202F
:106F2000FAF76AFC092C24D9039900204A01511A66
:106F30008C4615E0019942008B5E00998D5E591BCD
:106F400001D40E4600E0EE1A029FBF5EBE4206DD8F
:106F50000A2C04D0002900DAE91A029B9952401C3D
:106F60008445E7D8039A3E2042430099019802F0F5
:106F70002CFB641C282CBCD3012117E040000052DC
:106F80005C040000740500007C1B000090000040C1
:106F90007C050040FC020000680A00401817000051
:106FA000A0040000FF0F00007C1C000012200191D3
:106FB000009006981123806B1F2280B20299F9F786
:106FC000B2FF00210220FAF727F9049807B0F0BDBC
:106FD0007CB58E480421415E0C460B0003F056F947
:106FE0000705080B0E1115181A00FFF7FFFE11E038
:106FF000FFF76EFD0EE0FFF7C3FD0BE0FFF711FE9C
:1070000008E08348FFF794FE04E0FFF7F2FE01E09A
:10701000FFF733FF0125062C22D00720FFF7CAFB1C
:1070200000217B48FFF7C8FA042C16D0062C14D098
:10703000774878492030037F01950093427F2038BC
:10704000806B5B1E80B2F9F76EFF00210220FAF719
:10705000E3F801210220FAF7DFF86F4805737CBDE1
:107060000720FFF7A7FB01216948FFF7A5FAF4E71E
:1070700010B569480921654A0170926801211160C3
:10708000002101730320FFF795FB10BD70B55F4D24
:107090000446A8680E46002801D1FFF765FBAB68DF
:1070A00098889A890119914202D90020C04370BD85
:1070B000196A22460818314602F087FAA8688188C2
:1070C00009198180002070BDF0B5504E0446B068AB
:1070D0000D46002801D1FFF747FBB068C188807BCF
:1070E00009194000814202D90020C043F0BD0022AE
:1070F00017E0B168C8888969801880B2C30706D0D4
:10710000400840000B5AAF5CDBB23F0205E040088C
:1071100040000B5AAF5C1B0A1B023B43521C0B5234
:1071200092B2A242E5D3B068C1880919C18000209B
:10713000F0BDF0B5354E0446B0680D46002801D1CB
:10714000FFF712FBB0680189C07B0919400081423A
:1071500002D90020C043F0BD002217E0B1680889C1
:10716000C969801880B2C30706D0400840000B5A96
:10717000AF5CDBB23F0205E0400840000B5AAF5C59
:107180001B0A1B023B43521C0B5292B2A242E5D394
:10719000B0680189091901810020F0BD30B51B4D8F
:1071A0000C46A868002801D1FFF7DEFA6178207844
:1071B00009024018A9684881002030BD10B5FAF7CF
:1071C0006BF916218170154901200870FAF764F9EE
:1071D000FF21D5310182FAF75FF91E240477FAF70F
:1071E0005BF944770E48C821048044808180C180C7
:1071F0000321017504214175FAF74EF940214182BE
:10720000FAF74AF90521017510BD00007405000068
:107210007C1B000090000040FC0200005C050000A8
:1072200038030000F0B5FF4A85B0107F012806D171
:10723000FD48FE490079002803D00020486005B0D1
:10724000F0BD48681E2803D2401C48601E28F6D3B3
:10725000F74800907F20C00501908320C005029070
:10726000F0480024878816E0B068A500405902F075
:1072700001FE019903F0D4F80390F6680099705963
:1072800003F0CEF8039903F031F8029902F0E0FC24
:10729000641C7051E4B2E34EA742E5D8CFE7F0B5E5
:1072A00089B0E44803907F20C00500250490412068
:1072B00000060590DB482F46816800918188019186
:1072C00001692E46029128E0D648B4008069015930
:1072D000D448C068005903F033F9049903F0A0F8CA
:1072E0000690D048416907910859039903F098F82E
:1072F000069902F0FBFF059902F0AAFC07990851D4
:10730000022102F0C3FD02F053FD02994519085114
:1073100000980059C719761CF6B20198B042D3D82C
:10732000C04C01462846256002F0BAF9E28802996D
:10733000920088503846019902F0B2F9014601984E
:10734000009A80001150012D01DA012503E0BA49AD
:107350008D4200DD0D460199E1800299001D0D501E
:1073600000990F5009B0F0BDFEB5AE4D0227297F40
:10737000284640244069002938D0B04E0129F27FC8
:1073800004D0022908D1012A07D009E0012A2DD012
:10739000FFF785FFFFF746FFFEBDB17F012908D04B
:1073A000A04800248768C06800909E4880880190AB
:1073B00011E0882102F068F98821286902F064F957
:1073C000EC800FE0A500785902F054FD0099641C90
:1073D00048510198E4B2A042F4D80020F0779148D7
:1073E00001210177914900204860FEBD882102F00B
:1073F0004BF98821286902F047F9EC802F77FEBD10
:10740000F8B58F4800908748122600248768FAF75D
:1074100043F8458AFAF740F8007E4543FAF73CF80E
:10742000007D2946C1402046704342000098121852
:107430002220105E02F034F9A500785102F01AFD06
:107440007849641C8969E4B248511F2CDFD3FFF7E7
:107450008BFFF8BD70B5734C1F20A08000202077F3
:1074600020607848A0607748A030E06076482061CE
:107470007548A03060617548A0617548C07F754A45
:107480005A281BD1724820300178A52916D141789D
:10749000AA2913D141885186808890866C4D00209E
:1074A000263506E041004B191B888918401CCB8605
:1074B000C0B2518E4B00C9188142F3D85948872178
:1074C000C900203001800F21C901418010210171C4
:1074D0001D214171604981602031C1603A310161F3
:1074E000032114300170052141705B4903460839BE
:1074F0004160C91C1033C3608160002006214143F4
:1075000045008918401C498FC0B259530F28F5D344
:107510008821606902F0B8F88821206902F0B4F887
:107520008821E06802F0B0F88821A06802F0ACF889
:107530008821A06902F0A8F870BD012110B5C90327
:10754000884205DC8002032102F0AAF8001210BD77
:107550004002032102F0A4F840490012401810BD77
:10756000FFB504461A201825205E655F0A23421BDA
:107570000820205EE35E0E1A1B1A81B07243194682
:107580001046009302F08CF845191E201C27205E3F
:10759000E75F0099C01B704302F082F8C019421BDC
:1075A00014211020615E205E039B091A181A5043B3
:1075B00002F076F841190498016040E630B5039D69
:1075C000049C854201DA002004E08D4201DD0220A6
:1075D00000E00120944201DA002104E09C4201DD38
:1075E000022100E001214A008918081830BDFFB5CA
:1075F00087B00899019100908446164658789A6899
:107600001C4610182038C07F129F4100F068119D61
:10761000435A117862684900405A8646207810180B
:1076200020381DE0FC1C0000C01400008C05000088
:10763000000070410000E040FFFF0000BC1B0000A4
:10764000900000402035004060360040A0370040E8
:1076500080BF00108C03000044B40010555500009A
:10766000C07F12784100B0685200415A805A724679
:10767000FFF7A4FF03900020C04300902078002172
:107680000190401E059014E0B268636804935B5C4F
:107690005B00D05A604509DC04984B1CC35C5B005E
:1076A000D05A604502DB48B201990090491C059808
:1076B000C9B28842E8DC0020C04301906178002014
:1076C0000491491E069116E0F168A2680592125CC9
:1076D00052008B5A089A93420ADC059B421C9A5C22
:1076E00052008A5A08998A4202DB40B201900498FB
:1076F0000699401CC0B28142E6DC00200099491C7A
:1077000015D0C2070099D20F5118C9B2029163680F
:10771000B268595C4900525A4100CB191A81491983
:107720000A810299295462680299515C395401997D
:10773000491C16D08107CA0F01995118CBB2A26813
:10774000F168D25C9C4652008A5A4100CB191A82D9
:1077500049190A82634629180B71A1683A18C95C55
:1077600011710099491C1DD00199491C1AD021782A
:1077700062465143029AE368891849005A5A410007
:107780004B191A838E46A1686246895C3379029A46
:10779000594363689A5C336989184A0071469A5A5A
:1077A000C9190A83401CC0B20428A7D3039800213A
:1077B000030002F06BFD09FE87FD064142FCC0FBA1
:1077C000410000206268B1681278430052008A5A72
:1077D00059190A8100222A54019A9E46A368121858
:1077E00094469A5C5300F268D25A0A8262462B1879
:1077F0001A7123785A43E36852009A5A0A830A8915
:107800007346D9190A816268830012783A54109A33
:107810009A18528A0A82109A3B18724452791A7145
:1078200033795A433B5C401CD21852003369C0B2D2
:107830009A5A0A830228C5D3C6E0002022786168DC
:10784000430089182039C97FB2684900525A591932
:107850000A8122789E46521E2A54019AA368121861
:1078600094469A5C5300F268D25A0A8262462B18F8
:107870001A712378521C5A435200E368921E9A5A96
:107880000A830A897346D9190A8123786268D21853
:10789000203AD27F3A54109A83009A18128A0A82A8
:1078A000109A3B18724412791A7133795A433B5C2F
:1078B000401CD21852003369C0B29A5A0A83022877
:1078C000BCD381E00020009A616812189446895C5C
:1078D000B2684900525A41008E4649190A816246EF
:1078E0002A54A268F368127852009A5A0A82002336
:1078F0002A1813716246E36852009A5A0A83109A52
:10790000734672441289DB191A81109A125C3A5438
:10791000098A1982A1683A1809781171327951439C
:107920003A5C401C891849003269C0B2515A198327
:107930000228C8D348E00020009A616812189446D3
:10794000895CB2684900525A41008E4649190A8141
:1079500062462A546278A3689A18203AD27F53006C
:10796000F268D25A0A8263782A185B1E1371637810
:1079700022785B1E534362469A18E36852009A5A73
:107980000A83109A734672441289DB191A81109A7D
:10799000125C3A54098A19826278A16889182039E0
:1079A000C97F3A1811713279514303E06CE052E01B
:1079B00039E027E03A5C401C891849003269C0B2BE
:1079C000515A19830228B7D30398002805D00228FA
:1079D00003D0062801D0082812D128893881288AA6
:1079E000388229786068415C39702A79A068805CA7
:1079F000387132795043401831694000085A388351
:107A00000BB0F0BD6268B06812785200805A2881CD
:107A10002970A268F06812785200805A2882297171
:107A2000E06800884FE02278606880182038C07FC6
:107A3000B2684000105A28812078401E2870A26841
:107A4000F06812785200805A288229712078E16803
:107A50004000801E36E06268B06812785200805A9A
:107A6000288129706178A06840182038C07FF168AB
:107A70004000085A28826078401E2871607821787A
:107A8000401E484340001CE02178606840182038C0
:107A9000C07FB1684000085A28812078401E2870B5
:107AA0006178A06840182038C07FF1684000085A0B
:107AB00028826078401E2871607821784843400011
:107AC000801EE168085A288387E7F0B593B0144612
:107AD0001F46199A0BAE03AD0092189B02960195B2
:107AE0003A4609B200B2FFF782FD10AA0421515EA6
:107AF0006A462420105E604301F0D2FD13B0F0BD51
:107B000070B505461446049A181B521B491B504376
:107B100001F0C6FD001970BDFFB593B005460E46D5
:107B200014460BAA03A91C9F1D9802920191009074
:107B30003B4631B228B2169AFFF759FD01960095DF
:107B40007978B86841182039C97F00784A001699B9
:107B50004000C9688B5A0A5A39787868169F4118CC
:107B60002039C97FBF68007849004000795A385AE7
:107B7000FFF724FD01283DD0032804D0052802D0BA
:107B8000072837D0FEE76A463C20105E009024218B
:107B90002623515E1E251C20D35E555F105E0A46CB
:107BA0002946FFF7ADFF05466A463E20105E00906D
:107BB00024272623D75F1E211C20D35E515E105E32
:107BC0003A46FFF79DFF03466A463C20105EB042EE
:107BD00005D110A80421415E2046684334E03E20D0
:107BE000105EB04205D110A80621415E20465843E0
:107BF0002AE0FEE76A463420105E00902426262301
:107C0000965F16211420D35E515E105E3246FFF758
:107C100077FF06466A463620105E0090242726230A
:107C2000D75F16211420D35E515E105E3A46FFF7EF
:107C300067FF03466A463420105EA84208D110A8A8
:107C40000421415E2046704301F02AFD17B0F0BDCB
:107C50003620105EA842C6D0FEE7FFB59DB00646AE
:107C60001A46279813AD0BAC269B6F4631C71E985A
:107C700001B230B2FFF7BBFC20220BA903A8F8F732
:107C8000E1FC002203A95000031947191B8B3F8B0D
:107C90004018DB1B521CD2B20383042AF3D31BAB64
:107CA000314603A81E9AFFF75BFC1B991F9821B071
:107CB0000818F0BDF7B586B00646154600277800CF
:107CC0008419049010210820615E205E01910090CB
:107CD0006978A868079B41182039C97F00784A0055
:107CE00007994000C9689B688A5A94460A5A2978BD
:107CF000686841182039C97F007849004000595A06
:107D0000185A6346FFF75AFC030002F0BFFA092134
:107D100012211206122112212F000196009518221D
:107D200010210820A25E615E205E079BFFF795FF91
:107D300019E001960095182210210820A25E615ECC
:107D4000205E079BFFF7E8FE049A02A988520DE027
:107D500001960095182210210820A25E615E205E27
:107D6000079BFFF7B2FE049902AA50527F1CFFB294
:107D7000042FA4D3002002AA4100535A8919401CA1
:107D8000C0B20B830428F7D309B0F0BDFFB583B0B0
:107D900000271179FF4300200091491E14461D461B
:107DA00001910EE0A6684300F25A03998A4205DC6D
:107DB0009B1CF25A8A4201DB47B200980199401C91
:107DC000C0B28142EEDC00266179F64300200091CA
:107DD000491E029111E04300E2680193D15A049BCD
:107DE000994207DC019B9B1CD35A049A934201DB06
:107DF00046B200980299401CC0B28142EBDA0020E2
:107E0000791C0CD0C107C90FC919CAB29446A3681E
:107E100052009A5A43005B191A8162462A54711C17
:107E20000CD08107C90F8919C9B2E2684B00D25A38
:107E300043005B191A822A188E461171791C0BD0E7
:107E4000711C09D0227971464A4362442369520069
:107E50009A5A43005B191A83401CC0B20428CFD33E
:107E600004990398019100906079E2684000801EB7
:107E70002179135A4900A068891E415A1288008846
:107E8000FFF79CFB030002F001FA0906411E0641C0
:107E90001E06411E41000021A9812981A2680328F4
:107EA0001288EA816A81E97069702FD1217922698B
:107EB00071434900515A698329832179761C7143A2
:107EC000490022691FE02179A2684900891E515AA0
:107ED000A98129812188491EE98169812179491E69
:107EE000A9702970052811D12179731C59434900C3
:107EF0002269891E515A698329832179B61C7143ED
:107F000049002269891E515AE983A983030002F0BE
:107F1000BDF9090606063F3F3F1919193F00002128
:107F200069822982E26801281288EA82AA82E971BC
:107F3000A9712DD122697900525AAA832A83891CFA
:107F4000226922E06179E2684900891E515A6982FA
:107F500029826188491EE982A9826179491E697175
:107F60002971072814D162792179521E5143C91908
:107F700022694900515AA983298362792179521EC5
:107F80005143C91949002269891C515AE9836983FF
:107F90000021C943002806D0022808D006280BD0AB
:107FA000082810D11BE020690021415E0BE02079F8
:107FB00021694000801E05E061792079491E48430F
:107FC000400011E0095E481C07D000204200521911
:107FD000401CC0B211830428F8D307B0F0BD20794B
:107FE000617948434000801E2169EBE770B58AB093
:107FF00004460E4615466B46604A09B200B2FFF7CA
:10800000C5FE5E4A5D4914326846FFF753FE08AB71
:10801000324621466846FFF7A3FA59480899808EF0
:10802000684301F03DFB0AB070BD0FB4F8B5544889
:10803000524D8030203D296804460182603CA07A80
:1080400001274F4E02280ED100202946A772343155
:10805000C9680622424343009219401C528FC0B2A5
:10806000CA520F28F5D3A07A00280FD0B08E00286E
:108070000CD0286801280CDB82B26846818B408BCB
:10808000FFF7B4FF2860FFF758FA28602868012836
:1080900001DA2F6003E03B49884200DD2960A07AC5
:1080A000002814D0384B28689A68811A00D5111A14
:1080B000FF243C34354AA14201DD986002E010689B
:1080C0002860986829680818401028601060F8BC7B
:1080D00008BC04B0184770B501882D4B00222A4D0A
:1080E000994201D0022014E04488002107E08B006F
:1080F000C65A1B185B88B2189A18491C89B2A1424B
:10810000F5D9A10008184068904201D0032000E092
:108110000120287070BDF8B51B4A07460020127870
:10812000C043012A01D00020F8BD0E1D4D88002457
:1081300015E0A3009A195188B9420ED3002C13D030
:10814000203A948BD08BF25A3B1A121B5A43091ACD
:10815000104601F0A5FA00192C46641CA4B2AC42EA
:10816000E7D3411C03D006E000242046EBE7A8003B
:1081700080192038808B80B2F8BD00001C1D0000E3
:108180008C030000FFFF00008C0500005805000074
:10819000A55A0000FFB58646002081B015460C9E0A
:1081A000014604460346521E01D5002200E06A1E25
:1081B0006F1CB74201D26D1C00E03546AC4610E0A2
:1081C00056007546AD5FF84E9700BE190427F75F5D
:1081D0002E467E43F71730187941EE172C1973415C
:1081E000521C6245ECDB224601F0B7F90907000991
:1081F00008430A9908800020049C01460246034671
:10820000641E01D5002401E0049C641E049D0D9EA3
:108210006D1CB54202D2049D6D1C00E03546AC4693
:1082200025E0052C0EDD029D6600AD5F0C2726467D
:108230007E43DD4FF6191627F75F7D43EE172818AA
:1082400071410DE0029D6600AD5F0C2726467E431E
:10825000D54FF6190E27F75F7D43EE1728187141A9
:10826000029D6600AD5FEE17AA187341641C644559
:10827000D7DB01F072F90907000908430B99088060
:10828000002005B0F0BD70B5002402254D5F085FE9
:10829000281A01D4034600E0434293420AD904233A
:1082A000CB565A1C12D0012A06D0022A0ED000202A
:1082B000F9F7A2FA60B270BD01220A71002801DA52
:1082C000901E08710D8004240C57F3E758430028D2
:1082D00002DA584244B20C710D80EBE710B5302140
:1082E0000A5C002A0AD001464031012A12D0022A33
:1082F00003D1428B0A82C08C888310BD00214A00C2
:1083000012184032438BD381C38C491C53830629F6
:10831000F5D310BD1A221424825E0C5F034660332D
:10832000A24202DA8A82C48C1C8018240C5FA2420A
:1083300002DD0A83C48C9C802624045F1E20085E14
:10834000844201DA4A82CC830220185E8442E0DD56
:10835000CA825C8010BDF8B50446002000909348A6
:108360002546203582682B7C2646521C0027403645
:10837000002B02D0012B25D11BE0012902D1317B3A
:10838000012901D0876039E006468260022A35D98A
:108390002046FFF7A3FF012028742777608B2083F6
:1083A000276267772F72E08CA084E7626F72B760F4
:1083B00024E000290AD0012911D002291ED0002072
:1083C000F9F71AFA287C022811D017E08260022AF5
:1083D00014D9022028742046FFF780FFF2E7876057
:1083E0002046FFF77BFF204600F0AEF9EAE7608BFE
:1083F0003082E08CB0832F74012000900098F8BD8B
:10840000FFB58BB002200A9000200546064600907A
:1084100009200024C043019004940B98059409940A
:108420000394406B07900B98806B0690F9F734F833
:10843000FF3001300779F9F72FF8FF30013040792C
:10844000381A80B20890F9F727F8FF300130077921
:10845000F9F722F8FF3001304079381802900B9874
:108460002030407C00280CD0F9F716F8FF3001309E
:108470000779F9F711F8FF300130407940083818D2
:10848000029000271FE0F9F707F8FF30013041792B
:1084900007987A00805E814203DA0399491C49B249
:1084A00003910299884209DD0199791A022901D3C1
:1084B0006D1C02E00099491C00910197A04201DD6A
:1084C000044605977F1C0C988742DCD30922D243CF
:1084D000002010E006994300C95E029B994204DD2A
:1084E000821A022A00D3761C0246099B994201DDBA
:1084F00009910490401C0D998842EBD3B54200DCF1
:1085000035460B9968B240310873012800DC012020
:108510000873009848730298844211DD0398062876
:108520000EDA01200A900E980D9B0C9A14996D4654
:108530000FC5049B059A06990798FFF72BFE04E0E8
:108540000898844201DA00200A900A980FB0F0BD22
:10855000F8B50023044620340093637C01274030A3
:108560000026124D002B0FD0012B28D0022B03D058
:10857000032B33D066746E806888401C6880607CF2
:10858000022838D00098F8BD6E80AB885B1CAB80A9
:1085900001290DD1AE80017B012909D10D21415660
:1085A000042905DC6774E7E73EB800109805000071
:1085B0000421415EA8888142DEDAAE8015E0002900
:1085C0000AD0F8F769FFFF30013080786988884267
:1085D000D2D203206074CFE70220FBE70423C35EFE
:1085E00098006B88984202DA66741770C4E7002915
:1085F000C2D16674C0E766746E8001200090F8BD39
:1086000001884288891A8289C08909B2101A00B289
:10861000002901DB0A4600E04A42031E00DA434219
:108620009A4205DD002901DB084604E0484202E0E9
:10863000002800DA404200B27047F1B588B0089CCB
:108640000125FF34153420462030817C002905D1D6
:10865000417C002902D1007C002800D00525F8F7D4
:108660001BFFFF300130807904AB6843254640355D
:10867000A88005A80090092211212046FFF7C0FE1E
:108680000746012807D16846008A608060836846F3
:10869000808AE081E08401AB03AA3946204600F0DD
:1086A000CDF8064606AB02AA3946204600F08CF803
:1086B000014668460279089840308277884A002E41
:1086C0000ED068468089E8800020205E962805DB71
:1086D0000223508DE35E9738834231DD00262FE080
:1086E00000292BD0684600897D4AE880138D002040
:1086F000420017195A22BA5E002A01DB9A4200DBB7
:108700000021401C40B20628F2DB1220285E7828A7
:1087100012DB734A528D793A90420DDC18201422F4
:10872000285EAA5E801A962806DB62201E22205E42
:10873000AA5E801A962803DA002101E00020E88072
:108740000846304309B0F0BD70B5664E0446308926
:10875000112100F09BFF0246214618312046FFF709
:1087600092FD0125002810D0012805D1627F2946FD
:10877000206A9140084320621D202056411C1F2979
:1087800001DD1F2000E0401C6077F0881F2100F011
:108790007DFF0246214624312046FFF774FD01008B
:1087A00011D020462030012904D1427AE16A954057
:1087B0002943E162092141564A1C1F2A01DD1F217C
:1087C00000E0491C417270BDFFB5054681B0002034
:1087D0000090C9B22846FFF7BEFD01282CD12C46D7
:1087E00018342435801E8646A8683F4A00218446F6
:1087F00006200B46434398184678B44512D1052607
:10880000AE57C778BE420DD1D35CA6689E4209D14F
:108810000523E3568078834204D10620414388181B
:10882000808803E0491C1229E2D37046002803DB4C
:108830000399088001200090009822E5FFB50546C5
:1088400081B0002000901A462846FFF781FE274F8E
:10885000064638782C46401C38702034A07C00280E
:1088600006D001281ED00020F8F7C6FF009808E5C2
:10887000012E0FD12846FFF7C3FE0646F8F70CFE7F
:10888000FF3001300089864204DA00203870A07C75
:10889000401CA074607C0128E8D168882880E889A1
:1088A000A881E3E7F8F7F8FDFF300130C0783978A8
:1088B000884211D3012ED9D12846FFF7A1FE0546E3
:1088C000F8F7EAFDFF3001300089854204DA012023
:1088D00000900398022101800020A074C6E70000E8
:1088E000AC0D0000FC020000C6B8001098050000A6
:1088F00010B53348F7F758FE10BD10B53048F7F7FC
:108900005DFE2F4C207800280AD1A078012807D1DD
:108910006078401C607000F057FB6078401E60700B
:1089200010BD10B5264C6078012802D06078401E3A
:108930000BE024480078012801D100F071FAA078FA
:10894000012801D100F040FB0020607010BD1C48E0
:108950004178491C41707047E3E710B51B481A493C
:1089600041618161072101611948C169FF22120635
:108970001143C161016A12121143016200F0D0FA81
:108980000F484178491C4170124B65221C469201E8
:108990000021114800F043FB2046F7F71DFE10BDF3
:1089A00010B50F490D4808600E490860012141715A
:1089B00000F0EEFAFFF7B5FF10BDFF20143070474E
:1089C000A4050000A70500001416050000E000E063
:1089D00000ED00E0501E0000C98D0010901D000049
:1089E000C4050000C005000070B5F24A06461078C4
:1089F000401C1070F04D0024A86801231A46A240C4
:108A0000104207D0641CE4B2202CF7D3FFF789FF93
:108A1000FF2070BDA3401843A8602868A140084308
:108A200028606868A64030436860FFF77AFF2046F8
:108A300070BD10B50268E04C00234168002A08D0E0
:108A400000290FD05160426801681160C06803615D
:108A500010BD002903D0216141680B60F6E7E36097
:108A60002361F3E7E26001684B60EFE770B505460C
:108A7000FFF7DFFFEC686069401C02D0204600F081
:108A80009CFB0020C0432061CC480068844202D196
:108A90000120607102E0204600F057FA286870BD9E
:108AA00070B50246C648C44D00780E46002801D075
:108AB000032070BDBF480178491C01700124944017
:108AC000E86817E081680A46224212D0002E02D0E0
:108AD000012E04D00DE0FFF724FF042070BD027CBE
:108AE000002A01D1A14202D1FFF7C0FF02E0A14359
:108AF000816000680028E5D1A868A043A8602868C4
:108B0000A04328606868A0436860FFF70AFF002060
:108B100070BD10B5A8490A6801218140104608427D
:108B20000CD0A44B1878401C1870A34843680B4025
:108B30009A430260FFF7F5FE002010BD0C2010BD27
:108B4000F8B506469C489B4F036815461C463A7884
:108B50003440521C3A70024657681A463240174059
:108B6000BB43002C01D0012909D0B44201D1002916
:108B700005D0FFF7D6FE0C2028700020F8BD03605A
:108B8000FFF7CFFE002028702046F8BD10B58B4CB3
:108B9000894B24682061C4608160027419690022D5
:108BA000002905D00860196902604160186110BD94
:108BB00002604260D860F9E7F3B5814985B0097871
:108BC000002902D0032007B0F0BD7A4F3978002980
:108BD00001D01520F7E73978491C3970764C012609
:108BE000216886400846304204D0606830408143A6
:108BF000216029E071480568069800280ED00222FD
:108C000031466846FFF7C2FF2846069900F0A4FAED
:108C1000FFF787FE286900281AD00BE002223146B0
:108C20006846FFF7B3FF02206871664901200870AB
:108C3000FFF777FE002028613878401C38706068A4
:108C400006402068B0432060FFF76BFE0020BAE7C3
:108C50000520B8E7FFB50646594885B000781C46A0
:108C6000002801D0032004E052480278002A02D0F4
:108C7000152018705AE04F480278521C02704E4D71
:108C800028682A4653680246074632401340374058
:108C90009843002F01D001292AD0B74201D10029E1
:108CA00026D046480A460768079831460028684695
:108CB00024D0FFF76BFF3846079900F04DFAFFF715
:108CC00030FE386900282FD000253A483D610178F0
:108CD000491C0170384807684268394637403A40B5
:108CE00091430160FFF71DFE2570384609B0F0BDC5
:108CF0002860FFF716FE00202070F6E7FFF746FF1A
:108D0000022078712F4901200870FFF70AFE002029
:108D1000386128480178491C01702F686968384615
:108D2000374039408843E3E7052020700020DDE725
:108D3000214901230A6883409A4300200A60704752
:108D400070B51D4C0125216885400846284201D098
:108D5000002070BD2943216016490878401C087026
:108D6000E0680FE0017C22680029816807D0114289
:108D700007D0FFF77BFE6168294203D004E09143EE
:108D8000F7D000680028EDD1FFF7CBFDE0E710B584
:108D90000849097800290AD001460022032000F082
:108DA0001DF8002801D0002010BD122010BDFFF7D3
:108DB000C7FF10BDA5050000601D0000C405000030
:108DC000A4050000A6050000F8F766FB2030407AF5
:108DD0000028F9D030BFF7E7FEE70000F8B50446F9
:108DE0000D461646F7F7F6FB294F3878032803D3CC
:108DF000F7F7EEFB0020F8BD2548F7F7D5FB7978AB
:108E0000244B012240181A70032100F03FFCC800D7
:108E1000C3191C715D719E60F7F7DAFB0120F8BD84
:108E20007CB51C4D00266878012802D100F02DFA8F
:108E30006E70A878164C01281ED100F045FBAE706C
:108E40001AE0F7F7C7FB6078C10009198A6849681A
:108E50000091401C0192032100F018FC6170207801
:108E6000401E2070F7F7B4FB68460078032803D152
:108E700068464078FFF764FF20780028E1D1F7F7D3
:108E8000A9FB2078002800D12E70F7F7A1FB7CBD4C
:108E9000741D0000A705000001231B061360131FAB
:108EA00018600122181FD243026014380160203874
:108EB000704710B515490878401C08701448002305
:108EC00001684268491C5A4106C012481C460068A5
:108ED000002808D04169012902D9491E416102E0F8
:108EE000446100F0EFF90C480068002808D04168A0
:108EF000012902D9491E416002E0446000F004FBF0
:108F0000064901200870FFF70CFD10BDA505000003
:108F1000B0050000C8050000CC050000A605000053
:108F20008848002102462032032381714371826107
:108F3000491C20302032C9B20229F6D381710021A8
:108F4000816181497F480860704770B503790021CD
:108F500041717D4901244A687C4D002A07D0167969
:108F60009E4206D92C708261D061486070BD2C7021
:108F7000FBE79169002904D00C799C4201D80A468C
:108F8000F7E781619061C2610029EFD0C86170BDCF
:108F900010B582696C4C0023C169002A0AD00029EF
:108FA0000ED0002A08D08A618169C269CA618361D2
:108FB000C36110BD002901D08B61F9E7636010BD6A
:108FC00062608361D36110BD70B55F494C68C86849
:108FD000002C23D08A68904220D15D4A1278012A61
:108FE0001CD85C4A1278002A18D1584B1A7046795E
:108FF000027923790125012E05D08C606571204608
:10900000FFF7C6FF08E0934208D28C60FFF79DFF90
:109010002046FFF7BDFF6571F7F7E2FA70BDFFB5B7
:10902000494C81B0E0681546D7B2002831D1049A86
:109030000198FFF731FF064645480178491C017049
:1090400020682146002820D0044680690860FFF788
:1090500068FC204604001CD0266000202771C04315
:1090600060610198A0600498E0600020A061E06168
:109070002061002D10DB36480178491C0170204624
:10908000FFF763FFFFF74DFC08E0FFF74AFC002005
:10909000E0E7FF2005B0F0BD02206071A079F9E79C
:1090A00010B5284A41018C18002804D0607928495D
:1090B000012802D006E0142010BD0A78002A01D051
:1090C000152010BD0A78521C0A70002802D0022810
:1090D00004D00EE02046FFF75BFF0AE06069401C09
:1090E00002D0204600F069F82069002801D0FFF77F
:1090F000A0FC03206071154901200870FFF711FCE6
:10910000002010BD1048C0688079C9E710B50D4A2D
:10911000400184186079032801D0002010BDE26866
:10912000A068FFF7B9FE206009480178491C01706A
:109130002046FFF70AFFFFF7F4FBEEE70248C0689E
:1091400080797047901D0000B8050000A60500005A
:10915000A5050000A405000030B500292CD05F4D06
:109160002C68002C01D022461AE0416128601EE0E4
:10917000D369002B05D09861D369C3618261D06146
:1091800002E08461E0612860826953695918416195
:109190005369591A51610AE09369002B04D01A46A9
:1091A0005369C91AF8D5E3E7C261906141610221B0
:1091B00041714B490120087030BD10B5C2690023D0
:1091C0008169002A10D000291CD091618169C2698F
:1091D000CA61816944694A6912194A618361C3613C
:1091E0000021C943416110BD3C4A002908D01160EB
:1091F0004A69446912194A618169CB618361EFE769
:109200001360EDE79361EAE7364903C9704710B58B
:1092100035490978002901D0032010BD411C07D031
:109220000028FAD031490A78002A03D0152010BD51
:10923000022010BD0A78521C0A7001462C480068B2
:10924000FFF78AFFFFF76DFB002010BD70B50D46DC
:109250002849400144186069401C10D02348027816
:10926000521C02702046FFF7A8FF002D09D02946A6
:109270002046FFF771FFFFF754FB002070BD11205F
:1092800070BD2046FFF761FEF5E7F8B5134E346870
:10929000002C16D00027FF4300256069002810D15C
:1092A0002069002801D0FFF7C4FB6761A069306026
:1092B0002046A561FFF749FE3468002C01D0E56126
:1092C000EBE7F8BD09480078012805D90A490120D3
:1092D00008700A4908707047D7E70000C805000009
:1092E000A6050000B0050000A4050000A5050000CB
:1092F000C4050000901D0000A7050000A80500009F
:10930000182170B54843864940184268002A2CD07D
:10931000844B1978491C1970834D2C68002C01D09E
:10932000214619E028601EE04B69002B05D018612A
:109330004B6943610161486102E00461606128603A
:1093400001694B689A1842604868801A48600AE0D0
:109350000B69002B04D019464B68D21AF8D5E3E705
:10936000416108614260FFF7DCFA70BD18216C4A68
:109370004143891810B56B4A13785B1C137018248D
:109380006043674C4A69001900230069002A0FD026
:1093900000281BD0106108694A69426108694C685D
:1093A0004268121942600B614B61FFF7BAFA10BDB7
:1093B0005D4A002808D01060436108694C68426823
:1093C000121942600B61F0E71360EEE71361EBE7FF
:1093D000FFB50F4653490646087881B0401C087017
:1093E000514A0024506801252946A140014208D075
:1093F000641CE4B2022CF7D3FFF793FAFF2005B008
:10940000F0BD2946A14001435160FFF78AFA20468A
:109410001821484342490C544018467085704760F3
:10942000039981600499C160002141610161204676
:10943000E5E718213A4A10B5414389188A78002A8D
:1094400003D000228A70FFF75BFF002010BD10B52B
:109450001821334A41438C18A178012903D0FFF722
:1094600085FF0120A070002010BD10B50446182013
:109470002B49604340188078002802D12046FFF72E
:1094800075FF294801214268A1408A4342600020BB
:1094900010BD00220A701821484321494018406835
:1094A000704710B5044618201D4B6043C3189A60DE
:1094B00059609878002805D12046FFF757FF2046CD
:1094C000FFF71EFF002010BD70B5174D15E0607846
:1094D000002802D0012810D105E02078FFF746FFD0
:1094E0000120A07007E02078FFF740FFA0686060CF
:1094F0002078FFF705FFE06880472C68002C02D039
:1095000060680028E3D070BD06480078012805D9BE
:10951000064901200870064908707047D4E700002A
:10952000541E0000A5050000CC050000A7050000A2
:10953000A905000010B5202A06DB0846CB17203A03
:109540001041C117194310BD0B4620241341D040D0
:10955000A21A91400843194610BD70B500252C464B
:10956000AD1A9C4112DA00252C462D1A8C4102DAE4
:1095700000F0AEFC70BD002440428C41214600F05A
:10958000A7FC002440428C41214619E000252C46CE
:109590002D1A8C410ADA002452429C41234600F0E5
:1095A00097FC002440428C41214670BD0024524269
:1095B0009C414042234600248C41214600F088FC17
:1095C000002452429C41234670BDF8B5042A2CD396
:1095D000830712D00B78491C0370401C521E83076E
:1095E0000BD00B78491C0370401C521E830704D01B
:1095F0000B78491C0370401C521E8B079B0F05D033
:10960000C91ADF002023DE1B08C90AE0F7F71AF8A1
:10961000F8BD1D4608C9FD401C46B4402C4310C08F
:10962000121F042AF5D2F308C91A521EF0D40B787F
:10963000491C0370401C521EEAD40B78491C03706D
:10964000401C521EE4D409780170F8BD01E004C04A
:10965000091F0429FBD28B0701D50280801CC90792
:1096600000D00270704700290BD0C30702D00270EF
:10967000401C491E022904D3830702D50280801CA6
:10968000891EE3E70022EEE70022DFE7002203095C
:109690008B422CD3030A8B4211D300239C464EE00D
:1096A00003460B433CD4002243088B4231D30309C9
:1096B0008B421CD3030A8B4201D394463FE0C3097B
:1096C0008B4201D3CB01C01A524183098B4201D393
:1096D0008B01C01A524143098B4201D34B01C01A7E
:1096E000524103098B4201D30B01C01A5241C308F6
:1096F0008B4201D3CB00C01A524183088B4201D365
:109700008B00C01A524143088B4201D34B00C01A50
:109710005241411A00D201465241104670475DE065
:10972000CA0F00D04942031000D3404253400022E8
:109730009C4603098B422DD3030A8B4212D3FC2291
:10974000890112BA030A8B420CD3890192118B4210
:1097500008D3890192118B4204D389013AD0921126
:1097600000E08909C3098B4201D3CB01C01A5241E1
:1097700083098B4201D38B01C01A524143098B42AA
:1097800001D34B01C01A524103098B4201D30B0193
:10979000C01A5241C3088B4201D3CB00C01A5241B8
:1097A00083088B4201D38B00C01A5241D9D243089F
:1097B0008B4201D34B00C01A5241411A00D20146DC
:1097C000634652415B10104601D34042002B00D546
:1097D0004942704763465B1000D3404201B5002008
:1097E000C046C04602BD00000246C80FC007814304
:1097F0004B0030B54B405B009B0D20D01923DB069E
:10980000C91801231B05994220DB0324A407042562
:109810001346AB400BD3002B04D1EB0613409B0047
:109820001B1904D401246407002312195941FF2392
:109830001B0599420BD2C9000143500F09E0CB022E
:1098400004D501430803024305D0054830BDFF217C
:10985000C905084330BD084607210905884330BDC6
:109860000000C07FF0B50C46871A9C410D46861A51
:109870009D4103D2C01BA141D21963410D0D1F0DA3
:10988000C44EEC1BAE435BD07E05760D52D02D0549
:10989000AC46A943DD020123ED0A1B051D4320232D
:1098A0001B1B24D41746E740002638184E41294692
:1098B000E14074189D400021281861410C0D27D10A
:1098C00061449A4012D50023401C594152000DD1E9
:1098D00040084000B04A4B00934207D305204007A0
:1098E000081801D5511000E0AC490020F0BD6B0014
:1098F000002A00D001229A18203C1F231B1B01D5EF
:10990000002303E0E5400024281861410C0DD7D066
:10991000012424050919C407CD0740084908E40FAC
:1099200028436144002CD5D00024401C61419A405A
:10993000D0D1CDE76A05520DD8D1C90FC907D4E7F8
:10994000954D4E00002801D0012400E00024341978
:109950005F00002A01D0012600E00026BE19904FCA
:10996000AC420BD8AE4209D8B44205D0BD00AC42DF
:10997000BCD010461946F0BD9942FCD000203946B3
:10998000F0BDF0B50C460F46811A9F412546861A58
:109990009D4106D20125ED076F40401ABC41521887
:1099A0007B41210D1E0D8D1BAC467A4D8D437DD024
:1099B00075056D0D7BD00D05AE46AC431B031B0B2F
:1099C000784D52429D41202366469B1B13D3174678
:1099D000F74038180026664164462F462741F4199F
:1099E0009D4000262818664116D4714671189A4089
:1099F00025D5012320E093182A466A415200002B06
:109A000000D0521C203E1E239B1B002B60DD3541E5
:109A1000EE1728186641E8D5001876415B1C9A407D
:109A200000D3401C4B05F3181524E3400FD3002B43
:109A300051D071467118D30FC01801D3491CF0BD25
:109A40000123DB079A42FAD140084000F0BD012211
:109A50005205B21801D1002853D00123CC0ADB02F1
:109A60009943891E002A08D1020C03D0020C00047D
:109A7000103902E00246002020390023550B05D1A1
:109A800012020823550B01D152010D23550C01D1AF
:109A900012011B1DD50C01D192009B1C150D01D18B
:109AA00052005B1C2025EE1A054601E02BE021E068
:109AB000F54015439840CA1AE10769181305C918FB
:109AC000002AC3DA032040070818C10FC9070FE0B6
:109AD00071466118F0BDF1074008084371107144E8
:109AE0004A000CD001235B059A42F3D2C90FC90783
:109AF0000020F0BD4905490D25D1002001E00028D6
:109B0000F4D10021F0BD244D6600002801D00121D0
:109B100000E0002171185F00002A01D0012600E05A
:109B20000026BE191E4FA9420FD8AE420DD8B14231
:109B300007D0BD00A94206D01946A80241401046F0
:109B4000F0BD9C4201D02146F0BD00203946F0BD59
:109B500030B40C465C4004D50124E407634030BCBB
:109B60000FE730BC7EE630B40C465C4004D50124DF
:109B7000E407634030BC75E630BC02E730B4012432
:109B8000E40761400D465D4001D430BC6AE66340A5
:109B900030BCF6E6FF0700000000E0FF0000F07FA9
:109BA0000000F87F0000F0FF1F22030C02D10F22FB
:109BB000000402D0030E02D003E000217047083AEF
:109BC0000002030F01D1121F0001830F01D1921E69
:109BD0008000002801DB521E40001205511842058A
:109BE000C012411810467047C10FC90700D040424B
:109BF000012292071143D7E701218907D4E700002A
:109C00000121C90541184A00520E0BD0C11007228C
:109C1000D2068918400752428A1802D50922120733
:109C200089187047090206D501464000F9D0C90FCE
:109C3000C90700207047420202D000200349704744
:109C40000721090501431046704700000000F87F16
:109C500070B5FF242404C609FF25264001352E4394
:109C6000C209CB090546224023404D40002A6BD053
:109C7000002B69D0A24267D0A34265D0002D00DA44
:109C800032460124E4052143204309020002090A67
:109C9000D21A000A4B0C7F24E31A434C7C44E35C49
:109CA0007D242404121914145B00A218884201D3E5
:109CB000521C00E0400049420C465C4324115C43C6
:109CC000DB016415E318040A5C43C502200D0C4651
:109CD00044436419250A5D432303EC0C0D46654398
:109CE00000030019EB184C42A34201D35B18401C3F
:109CF000D4052018002B07D05B00C91804D3401CE2
:109D0000002901D1400840003F2189048A4209D33B
:109D1000002A08DC1106090F04D003214907401866
:109D2000C00FC00770BD01224100120689187F22B2
:109D300052069142F6D205214907401801D59010EC
:109D400070BDFF20C00570BD002D00DA3246174EF1
:109D5000A24207D2A34205D21802000E17D0E80F84
:109D6000C00770BDFF2443002406A34216D8490053
:109D7000A14213D8A34201D1A1420FD0A14201D1E7
:109D8000002101E041004908D005084370BD1002E0
:109D9000000E03D0FF200243D00570BD304670BDD9
:109DA00048404140484053E7921C00000000C07FFB
:109DB00010B502469E240002D115A307002902D047
:109DC0001843002904DB611A00290CDDC84010BDCE
:109DD0000906090E01D140004008611A03D4C840A9
:109DE00040420028F3DDFF2150000906884201D9D6
:109DF000002010BDD017C043584010BD01460002DE
:109E0000CA1504D00123DB071843002A09DB9E236F
:109E10009A1A01D4D0407047FF224800120690429F
:109E200001D900207047C817C04370471F22030C98
:109E300002D10F2200041CD0030E01D1083A000207
:109E4000030F01D1121F0001830F01D1921E800068
:109E5000002801DB521E4000D20551180212511891
:109E60001922904004D3491C002801D14908490017
:109E700008467047C10FC90700D04042012292072F
:109E80001143D3E701218907D0E7000010B5FF2275
:109E900043001B0E09D05A4007D0914205DA5C42BC
:109EA000A14202DDC905081810BDC40FE407002B4C
:109EB00006D0002A06D0002902DBFF20C00504439B
:109EC000204610BD4102FCD0004810BD0000C07FFC
:109ED000FEB5054610460C46184372D0AE468C4679
:109EE0000020AD1A01469C4166D366460124002538
:109EF000B61A9D4102D313460022212465467646B8
:109F00002F04360C3E432D0CB61A9D4104D3150C7C
:109F10001B042B4312041034654676462F06360A7E
:109F20003E432D0AB61A9D4104D3150E1B022B4346
:109F300012020834654676462F0736093E432D093E
:109F4000B61A9D4104D3150F1B012B431201241D8A
:109F500065467646AF07B6083E43AD08B61A9D4142
:109F600004D3950F9B002B439200A41C65467646B4
:109F7000EF0776083E436D08B61A9D411AD3921832
:109F80005B41641C16E00018764665464941B71AE5
:109F90009D410191009009D36046B11A98418E46C7
:109FA0008446009801990025401C6941DD0752084C
:109FB0002A435B08641EE6D57246634603B0F0BDD3
:109FC000FFE700200146C046C0462A462346F5E783
:109FD00010B500F0B3F8006810BD10B5044600F0ED
:109FE000ADF8046010BD0000F0B53C4B0D460C030D
:109FF00002461D402243002D62D0394C8B4365D070
:10A000000127002966DB0A0D130599433B05194317
:10A01000FD32FA4001D300184941FF328B028132F0
:10A020009446820D13430121890782024C4200208D
:10A030001B198C105D1A04D42D1B02D42B4665000D
:10A04000491992185B416408F4D15C1A08D40125BF
:10A05000ED07EE175519744102D423462A46491CD0
:10A0600094185B41012292071D46261A8D4107D4A0
:10A070000027B61ABD4103D42B465500344640197B
:10A0800024195B415208802AEED1234300D00223D9
:10A090000A22D04001D3012213438A0510436246AD
:10A0A000890A12058918002B09D00122D34002D356
:10A0B0000022401C5141002B01D140084000F0BD5E
:10A0C000002AFCD0C90FC9070020F0BD002A01D129
:10A0D0000029FADA00202146F0BD00000000F07FE0
:10A0E0000000F87F10B5FF231B0644009C4217D8E0
:10A0F0004C009C4214D803460F4A0B4303D4401A29
:10A10000EFF3008010BD081AEFF3008004D20121A4
:10A110009043C907084300E0904380F3008810BDD6
:10A120000D231B041A4204D01146002000F00AF847
:10A1300010BD00F01DF810BD0000009000487047F1
:10A14000841E0000CA0211D54A03520F04D0C8036E
:10A15000C04301218840704703221207EFF30081BA
:10A1600008010009104380F3008870470020704701
:10A1700010B5024800F02DF810BD00000000C07FAF
:10A1800000487047841E00007546FFF7F9FFAE4691
:10A19000050069465346C008C000854618B020B582
:10A1A000F7F7F4FF60BC00274908B6460026C0C593
:10A1B000C0C5C0C5C0C5C0C5C0C5C0C5C0C5403D7F
:10A1C00049008D4670470446C046C0462046F6F713
:10A1D000D0F910B50C461107090F092904D00A2936
:10A1E0000AD008290CD104E011460820FFF7AAFF85
:10A1F00006E0510606D501E0510601D50120C00751
:10A20000214610BDD1060AD5010109090022CB085B
:10A2100054074907000E1C430006044309E0410FA0
:10A2200020024907000A0143200E00061D22D141E9
:10A2300001430846E4E770B58C180578401C6B07AD
:10A240005B0F01D10378401C2A1106D10278401C13
:10A2500003E00678401C0E70491C5B1EF9D12B07E9
:10A2600005D40023521E0DD40B70491CFAE7037865
:10A27000401CCB1A921C03E01D785B1C0D70491C1E
:10A28000521EF9D5A142D8D3002070BD30B4744617
:10A29000641E2578641CAB4200D21D46635D5B00E2
:10A2A000E31830BC18470000F8B506460C46FFF727
:10A2B0009BFE05000F4600D00120014349000A48DB
:10A2C0004908411A0CD5002E01D0012100E00021DF
:10A2D0000C4361004908401A02D40120FFF77DFEBB
:10A2E00028463946F8BD00000000F07F70B5012512
:10A2F0000400ED074C4020D4441A01D2001B091978
:10A30000C60D4B00F2B2FF2A29D01B0E2CD0000242
:10A310000C02D31A2C43DC402843051910D2280A1A
:10A3200002D3401C6D0611D0761EF6058019FF2A57
:10A3300000DA70BDC00DC00570BD694000F006F9BF
:10A3400001200543C541521C761CE8E764089C4087
:10A35000C90161408900E7D10124A043E4E71B0E55
:10A36000440200D0034870BD002AFCD1C00FC007D2
:10A3700070BD00BF0000C07F01230200DB050A435F
:10A380000DD4DA4203D49A4207D488427047D842A7
:10A3900014D4D94212D48842704780427047DA42BE
:10A3A00003D59A42F9D5814270475B004200DA42F8
:10A3B00004D24A00DA4201D28142704710B5024A03
:10A3C000FFF790FE10BD00BF090012040123020038
:10A3D000DB050A430DD4DA4203D49A4207D48842FB
:10A3E0007047D84214D4D94212D488427047804270
:10A3F0007047DA4203D59A42F9D5814270475B0033
:10A400004200DA4204D24A00DA4201D28142704765
:10A4100010B5024AFFF766FE10BD00BF0900160422
:10A4200070B5420064414B005C41120E39D01B0EE6
:10A4300038D0FF2A3CD0FF2B3AD040024902400AD4
:10A44000490A060045184E43000A090AD218484333
:10A45000ED017F3A0104731A4019190C4318990F42
:10A4600004D001215B0849075B1A521CD80904D3A8
:10A47000401CF50301D19D0607D0FF2A08D2D5055F
:10A4800006D0E4072043401970BD0125A843F4E736
:10A49000002A01DCE00770BD2402FF202043C00534
:10A4A00070BD1B0EFF2A03D0FF2B01D0E00770BD4B
:10A4B000FF2645003606B54206D84D00B54203D802
:10A4C000D218FF2A00D0E7E7004870BD0000C07F27
:10A4D00001230A00DB0502430DD4DA4203D49A4279
:10A4E00007D481427047D94214D4D84212D4814251
:10A4F000704789427047DA4203D59A42F9D58842BB
:10A5000070475B004A00DA4204D24200DA4201D2CC
:10A51000884270474840414010B5024A4840FFF722
:10A52000E1FD10BD0900160470B50125ED07684076
:10A5300004004C4002D5694000F008F8FFF7DCFE4B
:10A5400070B501250400ED074C4022D4441A02D214
:10A550006C40001B0919C60D4B00F2B2FF2A4BD00C
:10A560001B0E50D000020C02D31A2C43DC40A8432F
:10A57000051B05D5AD0019D36D08761E521E37D0C8
:10A58000F605280A01D2801970BD70416D0603D00E
:10A5900070BD6940FFF7B0FE9C4009026140490070
:10A5A00001D0401E70BD0124A04370BD6D081DD0B8
:10A5B00001202B0C01D12D0410302B0E01D12D02C6
:10A5C00008302B0F01D12D01001DAB0F01D1AD00C3
:10A5D000801CEB0F01D16D00401C6D00361A121A61
:10A5E000680AF5054019012A02DB70BD002070BD24
:10A5F000C036300AC00770BD1B0E440201D1FF2BCC
:10A6000000D1024870BD002AF0D070BD0000C07FAC
:10A61000010003020504080607090A0B0C0E0F10BF
:10A620000D131F001B1E1D191A1C171814131211CD
:10A63000100F0C0D0E0A090B080705040302010098
:10A640001F061615000000000000000000000000BA
:10A6500008004000000000000000000000000000B2
:10A6600004001000000000000000000000000000D6
:10A6700002000400000000000000000000000000D4
:10A680000100010000000000000000008000004008
:10A69000000000000000000000000000400000106A
:10A6A00000000000000000000000000000000000AA
:10A6B0002000000400000000000000002000000452
:10A6C0000000000000000000000000001000000179
:10A6D0000000000000000000000000000400100066
:10A6E0000000000000000000000000000200040064
:10A6F0000000000000000000000000000800400012
:10A7000000000000000000004000001000000000F9
:10A710000000000000000000800000400000000079
:10A720000000000000000000000000000100010027
:10A7300000000000000000002000000400000000F5
:10A7400000000000000000001000000100000000F8
:10A7500000000000000000000800400000000000B1
:10A7600000000000000000000400100000000000D5
:10A7700000000000000000000200040000000000D3
:10A7800000000000000000000100010000000000C7
:10A7900000000000000000000000000000000000B9
:10A7A00080000040000000000000000000000000E9
:10A7B00040000010400000100000000000000000F9
:10A7C00000000000800000400000000000000000C9
:10A7D0000000000008004000000000000000000031
:10A7E0000000000010000001000000000000000058
:10A7F0000000000001000100000000000000000057
:10A800000000000020000004000000000000000024
:10A810000000000004001000000000000000000024
:10A820000000000002000400000000000000000022
:10A830000000000000000000000000000000000018
:10A8400010000001FC020000680300007C0300000F
:10A85000000000000000000038030000F0020000CB
:10A860000000000000000000600300001C03000066
:10A87000200400008C030000000000002C040000F5
:10A88000000000001C0000000E0000000000280076
:10A890000A000000000008001C000C0094000000EA
:10A8A00048000000740400001803000000000000CD
:10A8B0000000000001000000000000400400000053
:10A8C00000000040100000000000004040000000B8
:10A8D00000000040000100000000004000040000F3
:10A8E0000000004000100000000000400040000098
:10A8F00000000040000001000000004000000400D3
:10A900000000004000001000000000400000400077
:10A9100000000040000000010000004000000004B2
:10A920000000004000000010000000400000004057
:10A930000000004000000000010000400000000096
:10A940000400004000000000100000400000000073
:10A950004000004000000000000100400000000036
:10A960000004004000000000001000400000000053
:10A970000040004000000000000001400000000016
:10A980000000044000000000000010400000000033
:10A9900000004040000000000000004100000000F6
:10A9A0000000004400000000000000500000000013
:10A9B00000000000F51D0000000000407D170000B1
:10A9C00000000040DF150000000000407735000067
:10A9D000000000405D3D000000000040571F0000E7
:10A9E00000000040D53700000000004000407D0717
:10A9F000000000400040DF050000004000C0770577
:10AA00000000004000C05D0D000000400040570FF6
:10AA10000000004000C0D507000000400040F50DD8
:10AA20000000004000000050DF010040000000D0A6
:10AA300077010040000000F05D0100400000007060
:10AA400057030040000000D0D50300400000007014
:10AA5000F5010040000000507D03004000000000B0
:10AA600000D477400000000000F45D4000000000CA
:10AA7000007C57400000000000DCD54000000000D2
:10AA80000074F54000000000005C7D400000000004
:10AA90000054DF4000000000000077750000000057
:10AAA00000005D7D000000000000575F0000000016
:10AAB0000000D577000000000000F55D00000000F8
:10AAC00000007D57000000000000DF55000000007E
:10AAD00000000000500500000000000000540100CC
:10AAE00000000000000055000000000000004015BC
:10AAF0000000000000000050050000000000000001
:10AB0000540100000000000000550000000000009B
:10AB1000004015000000000000005001000000008F
:10AB20000000000040000034121F0000000000344C
:10AB3000002080040100003448208004020000341A
:10AB4000BE22800403000034342580040400003455
:10AB50006227800405000034902980040600003438
:10AB6000062C800407000034342E800408000034D2
:10AB70006230800409000034903280040A000034FE
:10AB8000EC3480050B000034C03780040C00003426
:10AB9000EE3900000D000034003A00000E000034D1
:10ABA000121A40000F000034243A800420000034C0
:10ABB00000000000210000340100000022000034E9
:10ABC00000010101230000340101010124000034CF
:10ABD00001010101250000340101010126000034BA
:10ABE0000101010141000034000000003200003486
:10ABF000050A0F1433000034285068FA0010000CC6
:10AC00000020000C0030000C0040000C0050000C34
:10AC10000060000C0070000C0080000C0090000C24
:10AC2000400000341201000000C0000C00D0000CF5
:10AC300040000034120400000000000C400000340A
:10AC4000121F0000083000CCF84F7FCC1051C023F9
:10AC50000100403441000034000000004000003496
:10AC600011050000010000344820801F200000343E
:10AC70000101000021000034010001000500003442
:10AC80009029801F1251472F20000034010000013D
:10AC9000210000340001010005000034A229801FBA
:10ACA0001251472F20000034000001002100003421
:10ACB0000101010005000034B429801F1251472F03
:10ACC00020000034000100012100003401010000D7
:10ACD00005000034C629801F1251472F2000003480
:10ACE00001000101210000340100000005000034D2
:10ACF000D829801F1251472F200000340001010184
:10AD0000210000340000010005000034EA29801F02
:10AD10001251472F200000340101010021000034AE
:10AD20000001000005000034FC29801F1251472F4C
:10AD300040000034121F00000500003490298004F8
:10AD40004050001040000034012000000100003499
:10AD50005920800405000034A12980041051C0232B
:10AD600040000034121F000001000034482080041D
:10AD700005000034902980044100003400000000E8
:10AD80005015C0230100403401004034010040341C
:10AD900044000034010000005033402150440021A1
:10ADA0005866C0E37050000750664020D06FFF0621
:10ADB0001080000C608380206044802000800003AD
:10ADC00000400003A0800005A04000058080000630
:10ADD000408840226076C023307000060060000C7E
:10ADE00001004034D07FFF0660778020307000067D
:10ADF0000090000C010040340090000C4000003432
:10AE000012010000F0D100074000003412020000DF
:10AE10000000C021400C090400DD40204000003447
:10AE20001201000010D2001000C0000C40000034DD
:10AE3000121F00001051C0230100403441000034B3
:10AE40000000000040000034110500000100003443
:10AE50004820801F20000034010100002100003440
:10AE600001000100050000349029801F1251472F76
:10AE70002000003401000001210000340001010025
:10AE800005000034A229801F1251472F20000034F2
:10AE90000000010021000034010101000500003420
:10AEA000B429801F1251472F2000003400010001F7
:10AEB000210000340101000005000034C629801F74
:10AEC0001251472F200000340100010121000034FD
:10AED0000100000005000034D829801F1251472FBF
:10AEE00020000034000101012100003400000100B5
:10AEF00005000034EA29801F1251472F200000343A
:10AF000001010100210000340001000005000034AF
:10AF1000FC29801F1251472F40000034121F0000EF
:10AF20000500003490298004405000104000003497
:10AF30000120000001000034592080040500003485
:10AF4000A12980041051C02340000034121F0000CA
:10AF5000010000344820800405000034902980045A
:10AF600041000034000000005015C02301004034AF
:10AF7000010040340100403444000034010000006E
:10AF80007037C023D03FFF065053802060358020AB
:10AF9000003000033083C0235035C0234031140EED
:10AFA000036000C7035000C7836000478351004718
:10AFB000506640200062001040000034120600007D
:10AFC0000F000034243A000000F0000C4000003470
:10AFD000121F00006036C0230130000D0F00003446
:10AFE000243A000063FF40600F000034483A00003C
:10AFF00030FF40206036C0230130000D00300011CA
:10B000000F000034363A000063FF40600F00003448
:10B010005A3A000030FF40200F0000346C3A000024
:10B0200060FF40210F0000347E3A000060FF0021E5
:10B0300040000034121F00002000003400021018ED
:10B040002100003420283038220000344048505875
:10B0500023000034606870786056C02300C0000C84
:10B0600050CC40204000003412010000B0CFFF0659
:10B0700040000034121F00000100403411356028E8
:10B080000130000D003000114200003401000400C6
:10B0900020000034000000001145E02E4033002263
:10B0A0001143602920000034FFFBFFFB2100003426
:10B0B00011FBFFFB22000034FF00000041000034C0
:10B0C000000000001135902F410000340000000006
:10B0D000508300244088C02120000034000000007C
:10B0E00021000034000000002200003400000000B5
:10B0F00041000034000000001135902F8048C0232B
:10B100006140000D3455C0630490004C4100003490
:10B110000000000040A10007C050000750AA4020D6
:10B1200000A200100100403401004034010040340E
:10B13000010040348038C0232000003400000000AB
:10B1400040000034162400000A000034BE3480059C
:10B1500000A0000C0A000034EC34800540000034EC
:10B16000111F00006056C0235035C0230130000D70
:10B1700011B3502900B000111135502800300003E0
:10B180001145D02F30448020113450290030000365
:10B190000130000DB0330022235000500390004CCA
:10B1A00050A5C023400000341201000031C0000D42
:10B1B00040000034121F0000400000341201000063
:10B1C00000D0000C400000341160000000000003BB
:10B1D000200300040000C02100DD402040000034B6
:10B1E00012010000C0DFFF0640000034121E000004
:10B1F00040000034120900007871C0632821C06348
:10B200000860004C1080000C010040342072C02304
:10B21000010040340100403401004034010040345A
:10B22000102240202020001010378020A0300A0E6D
:10B23000400000341201000000D0000C4000003437
:10B240000109000000E0000C400000341209000079
:10B25000606340202060001030DD402030EE402050
:10B260004000003412010000200000340101010000
:10B27000410000340000000010CDA02F200100008C
:10B28000740100009C010000D80300003800000099
:10B290008C000000C1FFB2FF92FF79FF71FF87FFB2
:10B2A000C3FF2F00CC00970187028A038C04760528
:10B2B0003006A906D206A906300676058C048A0354
:10B2C00087029701CC002F00C3FF87FF71FF79FF32
:10B2D00092FFB2FFC1FF21000E000000000000003D
:10B2E0000000000000000000140000000000000248
:10B2F00034000000000000033500000000000004DE
:10B3000036000000000000053700000004050102BF
:10B31000030004FE11FEFC01EF01F505CE05ED0969
:10B32000AD09E60D8C0DDE116B11D7154A15CF193D
:10B330002919C81D081DC021E720B825C624B12938
:10B34000A528A92D842CA23163309A354234933933
:10B3500021388B3D003C8441DF3F7C45BE430000EB
:10B360009D4700007C4B00005B4F00003A530000FB
:10B3700019570000F85A0000D75E0000B6620000BE
:10B3800095660000746A0000536E0000327200007F
:10B3900011760000EF7900000000060D060D340D57
:10B3A000060D0604FF010000FF01FF010000FF0180
:10B3B000FFFF010104FE11FEFC01EF01F505CE05C2
:10B3C000ED09AD09E60D8C0DDE116B11D7154A158F
:10B3D000CF192919C81D081DC021E720B825C6248A
:10B3E000B129A528A92D842CA23163309A35423485
:10B3F000933921388B3D003C8441DF3F7C45BE437F
:10B4000000009D4700007C4B00005B4F00003A535A
:10B41000000019570000F85A0000D75E0000B6621D
:10B42000000095660000746A0000536E00003272DE
:10B43000000011760000EF790000000002070D0205
:10B44000080E141A39007400B200F20032017101C2
:10B45000B201F0012F026E02AC02ED022C036B036D
:10B46000AA03ED0347008200C100010141018201EE
:10B47000C201010240028002C002000343038403B0
:10B48000C403040446048604C60408055005850563
:10B49000C505040644068E06C7060707470741028E
:10B4A000B60225037F03BC03E903170447046304C2
:10B4B000650478046E043E04FD03AB0322039E0280
:10B4C0005503F3038004E30432058405BB05E0055E
:10B4D00009061C060506C5056705D8040F04FF020A
:10B4E000D203A4044F05DE055206BD060C074A0729
:10B4F000870799077B072D079E06DD05E3047B037D
:10B5000062045F052A06EB067907F7075808C408A6
:10B5100000091709FF08A808ED07FE06C305FF0389
:10B52000010519060807C90774080B099409030ADD
:10B53000660A940A6F0A050A35091D08A1069004D7
:10B54000A705C706C707A90868091C0AB80A300B6F
:10B550009B0BBE0B9B0B290B5D0A1A098907130570
:10B560002A065B077C088509730A370BC00B320C6F
:10B570008D0CAC0C880C0C0C480B060A47087405A3
:10B580008C06E4072F097B0A7B0B470CCF0C200DA0
:10B59000620D540D330DB80CEC0BB30AF808D80546
:10B5A0001C078B08F709520B550C280DAD0DF50D36
:10B5B000190E150ECD0D580D840C530B930945062D
:10B5C0009B071F09C10A200C300DFE0D880EDC0EF2
:10B5D000FA0EDF0E9E0E060E270DED0B360AA206A2
:10B5E0002208D709790BD30CFF0DD60E790FCE0F99
:10B5F000F90FDE0F760FC20EDB0D970CCA0A0C078F
:10B6000096085A0A0B0C800DBD0EBA0F6F10D2109F
:10B61000FE10D6105B108F0F7C0E0F0D2A0B5707F4
:10B62000F608D70A9F0C290E6E0F85105511CC1104
:10B63000E411AE1117113110FA0E5E0D610B930774
:10B640004809470B170DBC0E2510481128129012FF
:10B65000AC125212A511A4104B0F7D0D590BAE0761
:10B660008D099F0B6A0D230FA010CE11AE1213137C
:10B6700001138E12BD119110010F2C0D000BAA07A2
:10B680008C09B20B920D450FCB100A12CF12161374
:10B69000EF125B1273113010980EC70C890A9707CE
:10B6A0009809990B810D360FC210F111AE12E312F9
:10B6B0009A12FC110011A80F060E290CF4096B0751
:10B6C0005309570B320DDC0E63107F1143125512D4
:10B6D0000D1262115110040F640D910B65093307AF
:10B6E0000A09FD0ACF0C7B0EE40FFD10A111C11158
:10B6F0007011BD10B50F650EC70CFD0AF2081A07D0
:10B70000E008BF0A960C270E760F7510F710181177
:10B71000CE101F101A0FD40D560C8D0A7F08190772
:10B72000C908A10A550CCA0D130FE60F4B105B1088
:10B730001210790F8F0E660DF40B3A0A3508FE06CB
:10B74000B908870A2E0C920DB70E780FE30FE00FA1
:10B75000910F050F240E080DA60B040A20080507FB
:10B76000BA08750AED0B460D4F0E0F0F610F6B0FE8
:10B77000180F970EC50DBD0C870BDE090708F406E0
:10B780008F08210A950BDB0CD40D780EBF0EC90E65
:10B79000890E0B0E640D690C280B9D09D007AE06AF
:10B7A0003408A409EF0A110CEF0C930DE00DD40D31
:10B7B000A80D580DBF0CEB0BBE0A380975074406DF
:10B7C000AB07FC08150A100BD80B550C990CAF0CE5
:10B7D0008F0C570CE30B1F0BFE09A508F706AB05F2
:10B7E000EA060608EE08C109500AC10A0A0B0C0B4A
:10B7F000080BD70A790ADF09F008B1074706750474
:10B8000013067B076108E8084D099109A809A109F9
:10B810009A093109DD080D084C07E90577044C0346
:10B82000560439051306BE061107210748076E079F
:10B830008107470718077606BE05C704A70304FE5D
:10B8400011FEFC01EF01F505CE05ED09AD09E60D90
:10B850008C0DDE116B11D7154A15CF192919C81D8A
:10B86000081DC021E720B825C624B129A528A92D87
:10B87000842CA23163309A354234933921388B3D80
:10B88000003C8441DF3F7C45BE4300009D470000F3
:10B890007C4B00005B4F00003A530000195700003A
:10B8A000F85A0000D75E0000B662000095660000FE
:10B8B000746A0000536E00003272000011760000BE
:10B8C000EF79000000000502030265000502030392
:10B8D0006500050503036500050503046500020115
:10B8E000020163000201020263000202020263001D
:10B8F000020202036300010501047700010502044E
:10B900007700010502047700020503047700010AAD
:10B9100001046D00010A02046D00020A02046D00B8
:10B92000020A02046D00012A01066D0001150105DD
:10B930006D008182838485868788898B8C8D8E8F2C
:10B94000919293959697999A9C9D9FA0A2A3A5A743
:10B95000A8AAACAEB0B2B3B5B7B9BCBEC0C2C5C779
:10B96000C9CCCED1D4D7D9DCDFE2E6E9ECF0F3F7ED
:10B97000FAFE0000E4B90010C00000006000000002
:10B980001C05001044BA0010F00200003C01000049
:10B9900036A20010E0BA0010A0040000340100003C
:10B9A00036A2001034BB0010E01F00001C00000095
:10B9B0001C05001044BA001040010000A001000066
:10B9C00038050010E0BA00102C04000074000000DC
:10B9D0003805001034BB0010D40500001019000019
:10B9E0003805001010B50123512424062360114AA4
:10B9F000401C0CD01048106230BF00201062206044
:10BA00000E4841618161072101611E2104E00A485D
:10BA1000401C1062F1E700BF0846491E0028FAD119
:10BA2000936010BD00BF704700200549C043C86245
:10BA30007047000000000052FE7F000000E000E0C0
:10BA4000C0000050120A14F1FF0F446AFF0A246478
:10BA50000A0125800738049A5A0181100801011F44
:10BA60000705030E3A1E021A0A01126412C81A329E
:10BA7000021490011912191A960E1A500629041A66
:10BA800004021008030502040101782BC201011011
:10BA900008030301011919641264300A04040E0436
:10BAA000400601030832051A031412283982111ABC
:10BAB000010239073114B80B3212461C04640350DA
:10BAC000100A30F8FFFF9CFF30F837441EF0FA2AC6
:10BAD000053A899A01681AC8021A64901A0202008B
:10BAE00001101324AB4C1044AC0413E0AD1410B897
:10BAF000B11B10F0041394B20212100314803F1211
:10BB00003710121A01FC01DD02C003A2048405668D
:10BB10000649073712D910097A011C02BD025F03DA
:10BB20001A0402D102530163FFFF3C554A0B040182
:10BB30004C000000012251210906CA600220086160
:10BB4000C86A4007FCD50420C8620A61704700003B
:00000001FF
